:100000000C948C000C94AD000C94AD000C94AD00DD
:100010000C94AD000C94AD000C94AD000C94AD00AC
:100020000C94AD000C94AD000C94AD000C94AD009C
:100030000C94AD000C94AD000C94AD000C94AD008C
:100040000C94AD000C94AD000C94AD000C94AD007C
:100050000C94AD000C941E010C944C010C94AF0058
:100060000C94AD000C94AD000C94AD000C94AD005C
:100070000C94AD000C94AD000C94AD000C94AD004C
:100080000C94AD000C94AD000C94AD000C94AD003C
:100090000C94AD000C94AD000C94AD000C94AD002C
:1000A0000C94AD000C94AD000C94641F0C94AD0046
:1000B0000C94AD000C94AD000C94AD000C94AD000C
:1000C0000C94AD000C94AD000C94AD000C94AD00FC
:1000D0000C94AD000C94AD000C94AD000C94AD00EC
:1000E0000C94AD000C94DD1D0C94AB180C94521FB5
:1000F0000C9406050C9437170C94AB040C948018E0
:100100000C944B1F0C944E050C94151F0C94461B1D
:100110000C9498050C94DF0D11241FBECFEFD1E293
:10012000DEBFCDBF00E00CBF12E0A0E0B2E0E6E52C
:10013000F2E400E00BBF02C007900D92AE30B107B1
:10014000D9F722E0AEE0B2E001C01D92A032B207C2
:10015000E1F70E94AE030C94EC200C9400001F9277
:100160000F920FB60F9211240BB60F922F938F930D
:100170009F93EF93FF93CF93DF93CDB7DEB787E4E1
:1001800090E0FC0180818823C9F488E490E0FC01C0
:100190008081882399F482E091E0FC01208182E053
:1001A00091E02F7BFC01208381E390E0FC01208122
:1001B00081E390E02F7DFC01208331C087E490E053
:1001C000FC018081882399F081E390E0FC0120818B
:1001D00081E390E02F7DFC01208382E091E0FC012F
:1001E000208182E091E02064FC01208318C088E433
:1001F00090E0FC018081882391F082E091E0FC0195
:10020000208182E091E02F7BFC01208381E390E05C
:10021000FC01208181E390E02062FC01208300004A
:10022000DF91CF91FF91EF919F918F912F910F903F
:100230000BBE0F900FBE0F901F9018951F920F923C
:100240000FB60F9211240BB60F922F938F939F939B
:10025000EF93FF93CF93DF93CDB7DEB787E490E0C2
:10026000FC0180818F3F49F082E091E0FC01208118
:1002700082E091E02F7BFC0120830000DF91CF9191
:10028000FF91EF919F918F912F910F900BBE0F9047
:100290000FBE0F901F9018951F920F920FB60F92DE
:1002A00011240BB60F922F938F939F93EF93FF938D
:1002B000CF93DF93CDB7DEB788E490E0FC01808177
:1002C0008F3F49F081E390E0FC01208181E390E0E1
:1002D0002F7DFC0120830000DF91CF91FF91EF91F2
:1002E0009F918F912F910F900BBE0F900FBE0F908B
:1002F0001F901895CF93DF93CDB7DEB781E091E0E3
:10030000FC01208181E091E02064FC01208380E3F6
:1003100090E0FC01208180E390E02062FC012083DA
:1003200082E091E0FC01208182E091E02F7BFC01E2
:10033000208381E390E0FC01208181E390E02F7D28
:10034000FC01208384E490E0FC01108285E490E0CD
:1003500023E0FC01208387E490E0FC01108288E424
:1003600090E0FC0110828EE690E027E0FC01208303
:1003700078940000DF91CF910895CF93DF930F928F
:10038000CDB7DEB7898389818C39E4F189818436E0
:1003900009F0C4F589818823DCF088E490E0FC0151
:1003A00010828981082E000C990B2FEF289FA00145
:1003B000299F500D112424E630E0CA01B9010E94A2
:1003C000921FCB019C0187E490E0FC0120831AC0BE
:1003D00087E490E0FC0110828981082E000C990BC3
:1003E0002FEF289FA001299F500D11242CE93FEFEA
:1003F000CA01B9010E94921FCB019C0188E490E0E0
:10040000FC01208300000F90DF91CF910895CF93DE
:10041000DF93CDB7DEB70E947A0184E290E0FC0161
:10042000208184E290E02F70FC01208385E290E03F
:10043000FC01208185E290E0206FFC01208381E2B5
:1004400090E0FC01208181E290E02761FC012083A3
:1004500082E290E0FC01208182E290E02761FC01D1
:1004600020838AE091E0FC018081282F2F678AE0B9
:1004700091E0FC0120838AE290E0FC0120818AE285
:1004800090E02160FC01208387E290E0FC01808104
:10049000282F2F6787E290E0FC01208381E091E024
:1004A000FC01208181E091E02063FC01208383E353
:1004B00090E0FC01208183E390E02062FC01208336
:1004C00082E091E0FC01208182E091E02F7EFC013E
:1004D000208384E390E0FC01208184E390E02F7D81
:1004E000FC01208380EA90E0FC01108281EA90E028
:1004F000FC01108284EA90E0FC011182108288EAFB
:1005000090E02CED35E0FC013183208381EA90E01E
:10051000FC01208181EA90E02860FC01208381EACF
:1005200090E0FC01208181EA90E02560FC012083BD
:1005300082E790E0FC01208182E790E02260FC01EC
:10054000208378940000DF91CF910895CF93DF93BB
:1005500000D00F92CDB7DEB78C838C8189831A824D
:1005600032C0898181708B838B81882359F054F04C
:1005700082E091E0FC01208182E091E02062FC01B8
:10058000208309C082E091E0FC01208182E091E0BB
:100590002F7DFC01208382E091E0FC01208182E03C
:1005A00091E02061FC01208382E091E0FC01208148
:1005B00082E091E02F7EFC012083898185958983EB
:1005C0008A818F5F8A838A81873059F254F20000D2
:1005D00000000F900F900F900F90DF91CF91089532
:1005E000CF93DF930F92CDB7DEB789838981282F10
:1005F000880F330B80E890E002C0959587952A9587
:10060000E2F70E94A60200000F90DF91CF910895BB
:10061000CF93DF930F920F92CDB7DEB789836A83B2
:1006200089810E94A6028A810E94F00284E390E000
:10063000FC01208184E390E02062FC01208384E3BC
:1006400090E0FC01208184E390E02F7DFC01208379
:1006500000000F900F90DF91CF910895CF93DF931B
:10066000CDB7DEB780910202082E000C990B8835B9
:10067000910521F08935910599F160C088EA90E0F3
:10068000FC01408151819A01ADECBCEC0E94AE1F8F
:100690009C01369527953695279536952795C9015E
:1006A000880F991F880F991F820F931F880F991F1A
:1006B0009A01281B390B2115310549F460E08FEEB2
:1006C0000E94080361E08FEE0E94080337C060E0DB
:1006D00083EE0E94080361E08FEE0E9408032EC0A3
:1006E00088EA90E0FC0140815181CA019695879586
:1006F000969587959C01ABE7B4E10E94AE1F969555
:10070000879564E6689F9001699F300D1124CA01A6
:10071000821B930B009749F460E083EF0E9408036B
:1007200061E08FEF0E94080308C060E083EE0E9442
:10073000080361E08FEE0E94080300008091100220
:10074000082E000C990B8D5F9D4FFC01808163E0AA
:100750000E9408030000DF91CF9108950F931F932B
:10076000CF93DF93CDB7DEB7CE50D3400FB6F8941A
:10077000DEBF0FBECDBF0E94070289E290E0DC0120
:100780008C91882F90E081709927009709F4C9C057
:1007900080E090E0A0EFB1E489839A83AB83BC83CF
:1007A00020E030E04AE755E469817A818B819C81C1
:1007B0000E945720C156DE4F688379838A839B83CA
:1007C000CF59D140C156DE4F288139814A815B81A2
:1007D000CF59D1402D833E834F83588720E030E0AE
:1007E00040E85FE36D817E818F8198850E94D11FF3
:1007F00088232CF481E090E09A87898776C020E0F6
:100800003FEF4FE757E46D817E818F8198850E948D
:100810005220882309F00CF452C020E030E040E27E
:1008200051E469817A818B819C810E945720CD554A
:10083000DE4F688379838A839B83C35AD140CD5529
:10084000DE4F88819981AA81BB81C35AD140CD5B9B
:10085000DE4F88839983AA83BB83C354D140CD5B89
:10086000DE4F688179818A819B81C354D1400E9487
:10087000D61FC955DE4F688379838A839B83C75A05
:10088000D140C955DE4FA881B981C75AD140BA8736
:10089000A98710C080E991E09C878B878B859C8518
:1008A0000197F1F79C878B87000089859A850197CE
:1008B0009A87898789859A85009761F721C06D811C
:1008C0007E818F8198850E94D61FC555DE4F688333
:1008D00079838A839B83CB5AD140C555DE4FE8810B
:1008E000F981CB5AD140FA87E98789859A859E8715
:1008F0008D878D859E850197F1F79E878D870000F6
:1009000080910E0290910F0290931D0280931C0221
:100910008AE090E0909301028093000285E6809344
:1009200002028091000290910102092E000CAA0B94
:10093000BB0B0A97A109B1098C339105A105B1053B
:1009400019F010F00C94521FFC018827E251FF4D62
:100950008F4F0C94A61F81E090E090930F0280933C
:100960000E020E942E0382E290E0DC012C9182E2D2
:1009700090E02260FC01208385E290E0DC013C9164
:1009800085E290E020E12327FC01208382E290E0D1
:10099000DC012C9182E290E02F7EFC01208385E235
:1009A00090E0DC013C9185E290E020E22327FC010D
:1009B00020838AE00E94BD0186E290E0DC018C91F8
:1009C000882F90E084709927009711F40C94581F99
:1009D00080E00E94BD018BE090E090930102809343
:1009E000000282E290E0FC01208182E290E020613E
:1009F000DC012C9385E290E0FC01308185E290E0FF
:100A000020E22327DC012C930C94581F82E090E015
:100A100090930F0280930E020E942E0382E290E0D8
:100A2000FC01208182E290E02B7FDC012C9385E2A7
:100A300090E0FC01308185E290E020E42327DC0196
:100A40002C9380EB0E94BD0186E290E0FC01808146
:100A5000882F90E080749927009711F40C945B1F05
:100A600080E00E94BD018CE090E0909301028093B1
:100A7000000282E290E0DC012C9182E290E02460AE
:100A8000FC01208385E290E0DC013C9185E290E06E
:100A900020E42327FC0120830C945B1F83E090E07B
:100AA00090930F0280930E0282E290E0DC012C9181
:100AB00082E290E02E7FFC01208385E290E0DC0161
:100AC0003C9185E290E020E82327FC0120838CEE16
:100AD0000E94BD0186E290E0DC018C91882F90E0BD
:100AE00080719927009701F180E00E94BD0184E1A7
:100AF00090E0909301028093000282E290E0FC017A
:100B0000208182E290E02160DC012C9385E290E07C
:100B1000FC01308185E290E020E82327DC012C9362
:100B200010920F0210920E020E942E030C94621F6C
:100B300088E58093020289E091E0FC018081882FA2
:100B400090E081709927009709F4DDC0809114022C
:100B500090911502009709F099C180E090E0A0EF14
:100B6000B1E48F87988BA98BBA8B20E030E04AE7FD
:100B700055E46F85788989899A890E945720C155E3
:100B8000DE4F688379838A839B83CF5AD140C155D6
:100B9000DE4F288139814A815B81CF5AD1402B8B2E
:100BA0003C8B4D8B5E8B20E030E040E85FE36B894F
:100BB0007C898D899E890E94D11F88232CF481E035
:100BC00090E0988F8F8B76C020E03FEF4FE757E49F
:100BD0006B897C898D899E890E945220882309F027
:100BE0000CF452C020E030E040E251E46F85788997
:100BF00089899A890E945720CD54DE4F6883798372
:100C00008A839B83C35BD140CD54DE4F8881998119
:100C1000AA81BB81C35BD140C95BDE4F88839983C6
:100C2000AA83BB83C754D140C95BDE4F68817981F9
:100C30008A819B81C754D1400E94D61FC954DE4F80
:100C4000688379838A839B83C75BD140C954DE4F15
:100C5000A881B981C75BD140B88FAF8B10C080E944
:100C600091E09A8F898F898D9A8D0197F1F79A8FEC
:100C7000898F00008F89988D0197988F8F8B8F892E
:100C8000988D009761F721C06B897C898D899E8939
:100C90000E94D61FC554DE4F688379838A839B8365
:100CA000CB5BD140C554DE4FE881F981CB5BD140AD
:100CB000F88FEF8B8F89988D9C8F8B8F8B8D9C8D70
:100CC0000197F1F79C8F8B8F000080910E0290911D
:100CD0000F02009759F054F080910E0290910F028C
:100CE000019790930F0280930E0206C088E090E077
:100CF00090930F0280930E0281E090E09093150292
:100D000080931402C3C08091140290911502009741
:100D100009F4BCC080E090E0A0EFB1E48D8F9E8F1D
:100D2000AF8FB8A320E030E04AE755E46D8D7E8DAB
:100D30008F8D98A10E945720C154DE4F688379831C
:100D40008A839B83CF5BD140C154DE4F2881398198
:100D50004A815B81CF5BD14029A33AA34BA35CA31B
:100D600020E030E040E85FE369A17AA18BA19CA17B
:100D70000E94D11F88232CF481E090E09EA38DA3D4
:100D800076C020E03FEF4FE757E469A17AA18BA13D
:100D90009CA10E945220882309F00CF452C020E04C
:100DA00030E040E251E46D8D7E8D8F8D98A10E94E0
:100DB0005720CD53DE4F688379838A839B83C35C3E
:100DC000D140CD53DE4F88819981AA81BB81C35C1C
:100DD000D140C55BDE4F88839983AA83BB83CB5404
:100DE000D140C55BDE4F688179818A819B81CB547C
:100DF000D1400E94D61FC953DE4F688379838A830E
:100E00009B83C75CD140C953DE4FA881B981C75CC1
:100E1000D140BEA3ADA310C080E991E098A78FA3F5
:100E20008FA198A50197F1F798A78FA300008DA136
:100E30009EA101979EA38DA38DA19EA1009761F70E
:100E400021C069A17AA18BA19CA10E94D61FC55384
:100E5000DE4F688379838A839B83CB5CD140C55303
:100E6000DE4FE881F981CB5CD140FEA3EDA38DA1DB
:100E70009EA19AA789A789A59AA50197F1F79AA794
:100E800089A70000109215021092140289E091E0E7
:100E9000DC018C91882F90E084709927009709F4E9
:100EA000DCC08091180290911902009709F0DDC111
:100EB00080E090E0A0EFB1E48BA79CA7ADA7BEA710
:100EC00020E030E04AE755E46BA57CA58DA59EA502
:100ED0000E945720C153DE4F688379838A839B83A6
:100EE000CF5CD140C153DE4F288139814A815B817B
:100EF000CF5CD1402FA738AB49AB5AAB20E030E0F4
:100F000040E85FE36FA578A989A99AA90E94D11F3B
:100F100088232CF481E090E09CAB8BAB76C020E082
:100F20003FEF4FE757E46FA578A989A99AA90E94D6
:100F30005220882309F00CF452C020E030E040E257
:100F400051E46BA57CA58DA59EA50E945720CD528E
:100F5000DE4F688379838A839B83C35DD140CD5202
:100F6000DE4F88819981AA81BB81C35DD140C15B7D
:100F7000DE4F88839983AA83BB83CF54D140C15B62
:100F8000DE4F688179818A819B81CF54D1400E9454
:100F9000D61FC952DE4F688379838A839B83C75DDE
:100FA000D140C952DE4FA881B981C75DD140BCABE9
:100FB000ABAB10C080E991E09EAB8DAB8DA99EA933
:100FC0000197F1F79EAB8DAB00008BA99CA901970F
:100FD0009CAB8BAB8BA99CA9009761F721C06FA537
:100FE00078A989A99AA90E94D61FC552DE4F6883A5
:100FF00079838A839B83CB5DD140C552DE4FE881E4
:10100000F981CB5DD140FCABEBAB8BA99CA998AF30
:101010008FAB8FA998AD0197F1F798AF8FAB000018
:1010200080910E0290910F028730910509F054F4DF
:1010300080910E0290910F02019690930F0280937F
:101040000E0204C010920F0210920E0281E090E096
:10105000909319028093180208C180911802909110
:101060001902009709F401C180E090E0A0EFB1E41B
:1010700089AF9AAFABAFBCAF20E030E04AE755E4B0
:1010800069AD7AAD8BAD9CAD0E945720C152DE4F49
:10109000688379838A839B83CF5DD140CE01CD96CF
:1010A000C152DE4F288139814A815B81CF5DD140B9
:1010B000DC012D933D934D935C93139720E030E03A
:1010C00040E85FE3CE01CD96FC01608171818281B1
:1010D00093810E94D11F882354F4CE018F5B9F4FD0
:1010E00021E030E0DC0111963C932E939FC020E07C
:1010F0003FEF4FE757E4CE01CD96FC01608171814F
:10110000828193810E945220882309F00CF471C0DF
:1011100020E030E040E251E469AD7AAD8BAD9CADAA
:101120000E945720CD51DE4F688379838A839B8349
:10113000C35ED140CD51DE4F288139814A815B8128
:10114000C35ED140CD5ADE4F288339834A835B8307
:10115000C355D1408E010F5B1F4FCD5ADE4F6881C2
:1011600079818A819B81C355D1400E94D61FC95184
:10117000DE4F688379838A839B83C75ED140C951E0
:10118000DE4FE881F981C75ED140D8011196FC930A
:10119000EE9326C0CE018D5B9F4F20E931E0DC014C
:1011A0002D933C93CE018D5B9F4FFC0180819181FB
:1011B0000197F1F79E012D5B3F4FD9018D939C93D1
:1011C0000000CE018F5B9F4F9E012F5B3F4FF901C7
:1011D0002081318121503109DC0111963C932E93FD
:1011E000CE018F5B9F4FFC0180819181009791F62A
:1011F00038C08E010F5B1F4FCE01CD96DC016D9183
:101200007D918D919C910E94D61FC551DE4F6883C0
:1012100079838A839B83CB5ED140C551DE4F288181
:101220003981CB5ED140F80131832083CE018B5BC5
:101230009F4F9E012F5B3F4FD9012D913C91FC01A7
:1012400031832083CE018B5B9F4FDC018D919C917C
:101250000197F1F79E012B5B3F4FF901918380834A
:101260000000109219021092180289E091E0DC014E
:101270008C91882F90E080719927009709F432C1F2
:101280008091160290911702009709F043C29E01C7
:10129000295B3F4F80E090E0A0EFB1E4F90180834B
:1012A0009183A283B3838E01055B1F4FCE01895BBF
:1012B0009F4F20E030E04AE755E4DC016D917D91DD
:1012C0008D919C910E945720C151DE4F6883798394
:1012D0008A839B83CF5ED140C151DE4F2881398103
:1012E0004A815B81CF5ED140D8012D933D934D93D0
:1012F0005C931397CE01855B9F4F20E030E040E880
:101300005FE3FC0160817181828193810E94D11F22
:10131000882354F4CE01815B9F4F21E030E0DC0153
:1013200011963C932E93A5C0CE01855B9F4F20E084
:101330003FEF4FE757E4FC01608171818281938127
:101340000E945220882309F00CF475C0CE01895BFD
:101350009F4F20E030E040E251E4DC016D917D914F
:101360008D919C910E945720CD50DE4F68837983E8
:101370008A839B83C35FD140CD50DE4F2881398162
:101380004A815B81C35FD140C95ADE4F28833983CC
:101390004A835B83C755D1408E01015B1F4FC95AF9
:1013A000DE4F688179818A819B81C755D1400E9437
:1013B000D61FC950DE4F688379838A839B83C75FBA
:1013C000D140C950DE4FE881F981C75FD140D801D3
:1013D0001196FC93EE9326C0CE018F5A9F4F20E9C1
:1013E00031E0DC012D933C93CE018F5A9F4FFC01DD
:1013F000808191810197F1F79E012F5A3F4FD901CA
:101400008D939C930000CE01815B9F4F9E01215BD9
:101410003F4FF9012081318121503109DC011196C2
:101420003C932E93CE01815B9F4FFC018081918183
:10143000009791F63AC08E01015B1F4FCE01855B8C
:101440009F4FDC016D917D918D919C910E94D61FE3
:10145000C550DE4F688379838A839B83CB5FD140FD
:10146000C550DE4F28813981CB5FD140F8013183EF
:101470002083CE018D5A9F4F9E01215B3F4FD901A2
:101480002D913C91FC0131832083CE018D5A9F4FD9
:10149000DC018D919C9111970197F1F79E012D5AD6
:1014A0003F4FF90191838083000080910E0290915B
:1014B0000F0290931F0280931E0289E190E09093A7
:1014C00001028093000280911C0290911D02909372
:1014D0000F0280930E0281E090E0909317028093B8
:1014E000160218C18091160290911702009709F414
:1014F00011C19E012B5A3F4F80E090E0A0EFB1E474
:10150000F90180839183A283B3838E01075A1F4F11
:10151000CE018B5A9F4F20E030E04AE755E4DC01D2
:101520006D917D918D919C910E945720C150DE4F0D
:10153000688379838A839B83CF5FD140C150DE4F1C
:10154000288139814A815B81CF5FD140D8012D93B9
:101550003D934D935C931397CE01875A9F4F20E0A4
:1015600030E040E85FE3FC0160817181828193811A
:101570000E94D11F882354F4CE01835A9F4F21E04B
:1015800030E0DC0111963C932E93A5C0CE01875A22
:101590009F4F20E03FEF4FE757E4FC0160817181EE
:1015A000828193810E945220882309F00CF475C037
:1015B000CE018B5A9F4F20E030E040E251E4DC0145
:1015C0006D917D918D919C910E945720CD5FDD4F53
:1015D000688379838A839B83C350D240CD5FDD4F7C
:1015E000288139814A815B81C350D240C55ADE4F80
:1015F000288339834A835B83CB55D1408E01035ABC
:101600001F4FC55ADE4F688179818A819B81CB55F6
:10161000D1400E94D61FC95FDD4F688379838A83DA
:101620009B83C750D240C95FDD4FE881F981C75025
:10163000D240D8011196FC93EE9326C0CE01815A78
:101640009F4F20E931E0DC012D933C93CE01815A7C
:101650009F4FFC01808191810197F1F79E01215AF2
:101660003F4FD9018D939C930000CE01835A9F4F29
:101670009E01235A3F4FF9012081318121503109C8
:10168000DC0111963C932E93CE01835A9F4FFC01AF
:1016900080819181009791F639C08E01035A1F4FC6
:1016A000CE01875A9F4FDC016D917D918D919C9168
:1016B0000E94D61FC55FDD4F688379838A839B8331
:1016C000CB50D240C55FDD4F28813981CB50D2400D
:1016D000F80131832083CE018F599F4F9E01235AF9
:1016E0003F4FD9012D913C91FC0131832083CE01E4
:1016F0008F599F4FDC018D919C910197F1F79E01CD
:101700002F593F4FF90191838083000010921702F7
:101710001092160289E091E0DC018C91882F90E014
:1017200088709927009709F42EC180911A02909130
:101730001B02009709F03FC29E012D593F4F80E0E8
:1017400090E0A0EFB1E4F90180839183A283B38399
:101750008E0109591F4FCE018D599F4F20E030E077
:101760004AE755E4DC016D917D918D919C910E9439
:101770005720C15FDD4F688379838A839B83CF5075
:10178000D240C15FDD4F288139814A815B81CF50D2
:10179000D240D8012D933D934D935C931397CE0186
:1017A00089599F4F20E030E040E85FE3FC01608111
:1017B0007181828193810E94D11F882354F4CE01CC
:1017C00085599F4F21E030E0DC0111963C932E9328
:1017D000A5C0CE0189599F4F20E03FEF4FE757E466
:1017E000FC0160817181828193810E945220882353
:1017F00009F00CF475C0CE018D599F4F20E030E008
:1018000040E251E4DC016D917D918D919C910E94AB
:101810005720CD5EDD4F688379838A839B83C351D4
:10182000D240CD5EDD4F288139814A815B81C35131
:10183000D240C15ADE4F288339834A835B83CF5518
:10184000D1408E0105591F4FC15ADE4F6881798101
:101850008A819B81CF55D1400E94D61FC95EDD4F42
:10186000688379838A839B83C751D240C95EDD4FE9
:10187000E881F981C751D240D8011196FC93EE93CB
:1018800026C0CE0183599F4F20E931E0DC012D9322
:101890003C93CE0183599F4FFC0180819181019738
:1018A000F1F79E0123593F4FD9018D939C9300007E
:1018B000CE0185599F4F9E0125593F4FF901208147
:1018C000318121503109DC0111963C932E93CE01D8
:1018D00085599F4FFC0180819181009791F63AC014
:1018E0008E0105591F4FCE0189599F4FDC016D9123
:1018F0007D918D919C910E94D61FC55EDD4F6883BE
:1019000079838A839B83CB51D240C55EDD4F28818A
:101910003981CB51D240F80131832083CE018159E6
:101920009F4F9E0125593F4FD9012D913C91FC01BC
:1019300031832083CE0181599F4FDC018D919C9191
:1019400011970197F1F79E0121593F4FF9019183BA
:101950008083000080910E0290910F0290931F02ED
:1019600080931E028EE190E090930102809300022A
:1019700010920F0210920E0281E090E090931B02F1
:1019800080931A0218C180911A0290911B0200974D
:1019900009F411C19E012F583F4F80E090E0A0EF65
:1019A000B1E4F90180839183A283B3838E010B5844
:1019B0001F4FCE018F589F4F20E030E04AE755E49B
:1019C000DC016D917D918D919C910E945720C15EAB
:1019D000DD4F688379838A839B83CF51D240C15E78
:1019E000DD4F288139814A815B81CF51D240D801B6
:1019F0002D933D934D935C931397CE018B589F4F3E
:101A000020E030E040E85FE3FC0160817181828189
:101A100093810E94D11F882354F4CE0187589F4F91
:101A200021E030E0DC0111963C932E93A5C0CE015D
:101A30008B589F4F20E03FEF4FE757E4FC01608158
:101A40007181828193810E945220882309F00CF4D5
:101A500075C0CE018F589F4F20E030E040E251E446
:101A6000DC016D917D918D919C910E945720CD5DFF
:101A7000DD4F688379838A839B83C352D240CD5DD7
:101A8000DD4F288139814A815B81C352D240CD59D3
:101A9000DE4F288339834A835B83C356D1408E014E
:101AA00007581F4FCD59DE4F688179818A819B810C
:101AB000C356D1400E94D61FC95DDD4F688379832C
:101AC0008A839B83C752D240C95DDD4FE881F9818B
:101AD000C752D240D8011196FC93EE9326C0CE0196
:101AE00085589F4F20E931E0DC012D933C93CE01D6
:101AF00085589F4FFC01808191810197F1F79E01EC
:101B000025583F4FD9018D939C930000CE018758F3
:101B10009F4F9E0127583F4FF9012081318121506D
:101B20003109DC0111963C932E93CE0187589F4FCB
:101B3000FC0180819181009791F639C08E01075890
:101B40001F4FCE018B589F4FDC016D917D918D9180
:101B50009C910E94D61FC55DDD4F688379838A837F
:101B60009B83CB52D240C55DDD4F28813981CB525A
:101B7000D240F80131832083CE0183589F4F9E01CC
:101B800027583F4FD9012D913C91FC01318320838F
:101B9000CE0183589F4FDC018D919C910197F1F705
:101BA0009E0123583F4FF9019183808300001092DA
:101BB0001B0210921A020E942E030C94621F89E5E8
:101BC0008093020289E091E0DC018C91882F90E003
:101BD00081709927009709F433C180911402909184
:101BE0001502009709F044C29E0121583F4F80E042
:101BF00090E0A0EFB1E4F90180839183A283B383E5
:101C00008E010D571F4FCE0181589F4F20E030E0CD
:101C10004AE755E4DC016D917D918D919C910E9484
:101C20005720C15DDD4F688379838A839B83CF52C0
:101C3000D240C15DDD4F288139814A815B81CF521D
:101C4000D240D8012D933D934D935C931397CE01D1
:101C50008D579F4F20E030E040E85FE3FC0160815A
:101C60007181828193810E94D11F882354F4CE0117
:101C700089579F4F21E030E0DC0111963C932E9371
:101C8000A5C0CE018D579F4F20E03FEF4FE757E4AF
:101C9000FC0160817181828193810E94522088239E
:101CA00009F00CF475C0CE0181589F4F20E030E060
:101CB00040E251E4DC016D917D918D919C910E94F7
:101CC0005720CD5CDD4F688379838A839B83C35320
:101CD000D240CD5CDD4F288139814A815B81C3537D
:101CE000D240C959DE4F288339834A835B83C75664
:101CF000D1408E0109571F4FC959DE4F6881798144
:101D00008A819B81C756D1400E94D61FC95CDD4F96
:101D1000688379838A839B83C753D240C95CDD4F34
:101D2000E881F981C753D240D8011196FC93EE9314
:101D300026C0CE0187579F4F20E931E0DC012D936B
:101D40003C93CE0187579F4FFC0180819181019781
:101D5000F1F79E0127573F4FD9018D939C930000C7
:101D6000CE0189579F4F9E0129573F4FF90120818E
:101D7000318121503109DC0111963C932E93CE0123
:101D800089579F4FFC0180819181009791F63AC05D
:101D90008E0109571F4FCE018D579F4FDC016D916A
:101DA0007D918D919C910E94D61FC55CDD4F68830B
:101DB00079838A839B83CB53D240C55CDD4F2881D6
:101DC0003981CB53D240F80131832083CE0185572E
:101DD0009F4F9E0129573F4FD9012D913C91FC0106
:101DE00031832083CE0185579F4FDC018D919C91DB
:101DF00011970197F1F79E0125573F4FF901918304
:101E00008083000080910E0290910F02009759F09C
:101E100054F080910E0290910F02019790930F025F
:101E200080930E0206C089E090E090930F028093A9
:101E30000E0281E090E0909315028093140218C185
:101E40008091140290911502009709F411C19E012E
:101E500023573F4F80E090E0A0EFB1E4F901808389
:101E60009183A283B3838E010F561F4FCE018357F8
:101E70009F4F20E030E04AE755E4DC016D917D9111
:101E80008D919C910E945720C15CDD4F68837983BE
:101E90008A839B83CF53D240C15CDD4F2881398137
:101EA0004A815B81CF53D240D8012D933D934D930E
:101EB0005C931397CE018F569F4F20E030E040E8AF
:101EC0005FE3FC0160817181828193810E94D11F57
:101ED000882354F4CE018B569F4F21E030E0DC0183
:101EE00011963C932E93A5C0CE018F569F4F20E0B4
:101EF0003FEF4FE757E4FC0160817181828193815C
:101F00000E945220882309F00CF475C0CE0183573B
:101F10009F4F20E030E040E251E4DC016D917D9183
:101F20008D919C910E945720CD5BDD4F6883798312
:101F30008A839B83C354D240CD5BDD4F2881398196
:101F40004A815B81C354D240C559DE4F288339830F
:101F50004A835B83CB56D1408E010B561F4FC55928
:101F6000DE4F688179818A819B81CB56D1400E9466
:101F7000D61FC95BDD4F688379838A839B83C754EF
:101F8000D240C95BDD4FE881F981C754D240D80106
:101F90001196FC93EE9326C0CE0189569F4F20E9FF
:101FA00031E0DC012D933C93CE0189569F4FFC011B
:101FB000808191810197F1F79E0129563F4FD90108
:101FC0008D939C930000CE018B569F4F9E012B5604
:101FD0003F4FF9012081318121503109DC011196F7
:101FE0003C932E93CE018B569F4FFC0180819181B3
:101FF000009791F639C08E010B561F4FCE018F56B8
:102000009F4FDC016D917D918D919C910E94D61F17
:10201000C55BDD4F688379838A839B83CB54D24031
:10202000C55BDD4F28813981CB54D240F801318323
:102030002083CE0187569F4F9E012B563F4FD901DB
:102040002D913C91FC0131832083CE0187569F4F17
:10205000DC018D919C910197F1F79E0127563F4F2E
:10206000F9019183808300001092150210921402EE
:1020700089E091E0DC018C91882F90E084709927B1
:10208000009709F432C180911802909119020097CB
:1020900009F043C29E0125563F4F80E090E0A0EF3B
:1020A000B1E4F90180839183A283B3838E01015649
:1020B0001F4FCE0185569F4F20E030E04AE755E4A0
:1020C000DC016D917D918D919C910E945720C15BA7
:1020D000DD4F688379838A839B83CF54D240C15B71
:1020E000DD4F288139814A815B81CF54D240D801AC
:1020F0002D933D934D935C931397CE0181569F4F43
:1021000020E030E040E85FE3FC0160817181828182
:1021100093810E94D11F882354F4CE018D559F4F87
:1021200021E030E0DC0111963C932E93A5C0CE0156
:1021300081569F4F20E03FEF4FE757E4FC0160815D
:102140007181828193810E945220882309F00CF4CE
:1021500075C0CE0185569F4F20E030E040E251E44B
:10216000DC016D917D918D919C910E945720CD5AFB
:10217000DD4F688379838A839B83C355D240CD5AD0
:10218000DD4F288139814A815B81C355D240C159D5
:10219000DE4F288339834A835B83CF56D1408E013B
:1021A0000D551F4FC159DE4F688179818A819B810E
:1021B000CF56D1400E94D61FC95ADD4F688379831C
:1021C0008A839B83C755D240C95ADD4FE881F98184
:1021D000C755D240D8011196FC93EE9326C0CE018C
:1021E0008B559F4F20E931E0DC012D933C93CE01CC
:1021F0008B559F4FFC01808191810197F1F79E01E2
:102200002B553F4FD9018D939C930000CE018D55E6
:102210009F4F9E012D553F4FF90120813181215063
:102220003109DC0111963C932E93CE018D559F4FC1
:10223000FC0180819181009791F63AC08E010D5585
:102240001F4FCE0181569F4FDC016D917D918D9185
:102250009C910E94D61FC55ADD4F688379838A837B
:102260009B83CB55D240C55ADD4F28813981CB5550
:10227000D240F80131832083CE0189559F4F9E01C2
:102280002D553F4FD9012D913C91FC013183208385
:10229000CE0189559F4FDC018D919C91119701973B
:1022A000F1F79E0129553F4FF9019183808300008A
:1022B00080910E0290910F028830910509F054F43C
:1022C00080910E0290910F02019690930F028093DD
:1022D0000E0204C010920F0210920E0281E090E0F4
:1022E000909319028093180218C18091180290915E
:1022F0001902009709F411C19E0127553F4F80E054
:1023000090E0A0EFB1E4F90180839183A283B383CD
:102310008E0103551F4FCE0187559F4F20E030E0BF
:102320004AE755E4DC016D917D918D919C910E946D
:102330005720C15ADD4F688379838A839B83CF55A9
:10234000D240C15ADD4F288139814A815B81CF5506
:10235000D240D8012D933D934D935C931397CE01BA
:1023600083559F4F20E030E040E85FE3FC0160814F
:102370007181828193810E94D11F882354F4CE0100
:102380008F549F4F21E030E0DC0111963C932E9357
:10239000A5C0CE0183559F4F20E03FEF4FE757E4A4
:1023A000FC0160817181828193810E945220882387
:1023B00009F00CF475C0CE0187559F4F20E030E046
:1023C00040E251E4DC016D917D918D919C910E94E0
:1023D0005720CD59DD4F688379838A839B83C35609
:1023E000D240CD59DD4F288139814A815B81C35666
:1023F000D240CD58DE4F288339834A835B83C3574D
:10240000D1408E010F541F4FCD58DE4F6881798126
:102410008A819B81C357D1400E94D61FC959DD4F85
:10242000688379838A839B83C756D240C959DD4F1D
:10243000E881F981C756D240D8011196FC93EE93FA
:1024400026C0CE018D549F4F20E931E0DC012D9351
:102450003C93CE018D549F4FFC0180819181019767
:10246000F1F79E012D543F4FD9018D939C930000AD
:10247000CE018F549F4F9E012F543F4FF901208171
:10248000318121503109DC0111963C932E93CE010C
:102490008F549F4FFC0180819181009791F639C044
:1024A0008E010F541F4FCE0183559F4FDC016D915C
:1024B0007D918D919C910E94D61FC559DD4F6883F7
:1024C00079838A839B83CB56D240C559DD4F2881BF
:1024D0003981CB56D240F80131832083CE018B5411
:1024E0009F4F9E012F543F4FD9012D913C91FC01EC
:1024F00031832083CE018B549F4FDC018D919C91C1
:102500000197F1F79E012B543F4FF901918380838E
:102510000000109219021092180289E091E0DC018B
:102520008C91882F90E080719927009709F432C12F
:102530008091160290911702009709F043C29E0104
:1025400029543F4F80E090E0A0EFB1E4F90180838F
:102550009183A283B3838E0105541F4FCE0189540A
:102560009F4F20E030E04AE755E4DC016D917D911A
:102570008D919C910E945720C159DD4F68837983CA
:102580008A839B83CF56D240C159DD4F2881398140
:102590004A815B81CF56D240D8012D933D934D9314
:1025A0005C931397CE0185549F4F20E030E040E8C4
:1025B0005FE3FC0160817181828193810E94D11F60
:1025C000882354F4CE0181549F4F21E030E0DC0198
:1025D00011963C932E93A5C0CE0185549F4F20E0C9
:1025E0003FEF4FE757E4FC01608171818281938165
:1025F0000E945220882309F00CF475C0CE01895442
:102600009F4F20E030E040E251E4DC016D917D918C
:102610008D919C910E945720CD58DD4F688379831E
:102620008A839B83C357D240CD58DD4F288139819F
:102630004A815B81C357D240C958DE4F2883398312
:102640004A835B83C757D1408E0101541F4FC9583D
:10265000DE4F688179818A819B81C757D1400E9472
:10266000D61FC958DD4F688379838A839B83C757F8
:10267000D240C958DD4FE881F981C757D240D8010F
:102680001196FC93EE9326C0CE018F539F4F20E905
:1026900031E0DC012D933C93CE018F539F4FFC0121
:1026A000808191810197F1F79E012F533F4FD9010E
:1026B0008D939C930000CE0181549F4F9E01215425
:1026C0003F4FF9012081318121503109DC01119600
:1026D0003C932E93CE0181549F4FFC0180819181C8
:1026E000009791F63AC08E0101541F4FCE018554D8
:1026F0009F4FDC016D917D918D919C910E94D61F21
:10270000C558DD4F688379838A839B83CB57D2403A
:10271000C558DD4F28813981CB57D240F80131832C
:102720002083CE018D539F4F9E0121543F4FD901ED
:102730002D913C91FC0131832083CE018D539F4F1D
:10274000DC018D919C9111970197F1F79E012D531A
:102750003F4FF90191838083000080910E02909198
:102760000F0290931D0280931C0280911E02909193
:102770001F0290930F0280930E0284E190E09093E9
:1027800001028093000281E090E090931702809311
:10279000160218C18091160290911702009709F451
:1027A00011C19E012B533F4F80E090E0A0EFB1E4B8
:1027B000F90180839183A283B3838E0107531F4F56
:1027C000CE018B539F4F20E030E04AE755E4DC0117
:1027D0006D917D918D919C910E945720C158DD4F44
:1027E000688379838A839B83CF57D240C158DD4F5A
:1027F000288139814A815B81CF57D240D8012D93FE
:102800003D934D935C931397CE0187539F4F20E0E8
:1028100030E040E85FE3FC01608171818281938157
:102820000E94D11F882354F4CE0183539F4F21E08F
:1028300030E0DC0111963C932E93A5C0CE01875366
:102840009F4F20E03FEF4FE757E4FC01608171812B
:10285000828193810E945220882309F00CF475C074
:10286000CE018B539F4F20E030E040E251E4DC0189
:102870006D917D918D919C910E945720CD57DD4F98
:10288000688379838A839B83C358D240CD57DD4FB9
:10289000288139814A815B81C358D240C558DE4FB7
:1028A000288339834A835B83CB57D1408E010353FE
:1028B0001F4FC558DE4F688179818A819B81CB5734
:1028C000D1400E94D61FC957DD4F688379838A8320
:1028D0009B83C758D240C957DD4FE881F981C7585B
:1028E000D240D8011196FC93EE9326C0CE018153BD
:1028F0009F4F20E931E0DC012D933C93CE018153C1
:102900009F4FFC01808191810197F1F79E01215336
:102910003F4FD9018D939C930000CE0183539F4F6D
:102920009E0123533F4FF90120813181215031090C
:10293000DC0111963C932E93CE0183539F4FFC01F3
:1029400080819181009791F639C08E0103531F4F0A
:10295000CE0187539F4FDC016D917D918D919C91AC
:102960000E94D61FC557DD4F688379838A839B8376
:10297000CB58D240C557DD4F28813981CB58D24042
:10298000F80131832083CE018F529F4F9E01235344
:102990003F4FD9012D913C91FC0131832083CE0121
:1029A0008F529F4FDC018D919C910197F1F79E0111
:1029B0002F523F4FF901918380830000109217023C
:1029C0001092160289E091E0DC018C91882F90E052
:1029D00088709927009709F42EC180911A0290916E
:1029E0001B02009709F03FC29E012D523F4F80E02D
:1029F00090E0A0EFB1E4F90180839183A283B383D7
:102A00008E0109521F4FCE018D529F4F20E030E0C2
:102A10004AE755E4DC016D917D918D919C910E9476
:102A20005720C157DD4F688379838A839B83CF58B2
:102A3000D240C157DD4F288139814A815B81CF580F
:102A4000D240D8012D933D934D935C931397CE01C3
:102A500089529F4F20E030E040E85FE3FC01608155
:102A60007181828193810E94D11F882354F4CE0109
:102A700085529F4F21E030E0DC0111963C932E936C
:102A8000A5C0CE0189529F4F20E03FEF4FE757E4AA
:102A9000FC0160817181828193810E945220882390
:102AA00009F00CF475C0CE018D529F4F20E030E04C
:102AB00040E251E4DC016D917D918D919C910E94E9
:102AC0005720CD56DD4F688379838A839B83C35912
:102AD000D240CD56DD4F288139814A815B81C3596F
:102AE000D240C158DE4F288339834A835B83CF5756
:102AF000D1408E0105521F4FC158DE4F6881798148
:102B00008A819B81CF57D1400E94D61FC956DD4F85
:102B1000688379838A839B83C759D240C956DD4F26
:102B2000E881F981C759D240D8011196FC93EE9300
:102B300026C0CE0183529F4F20E931E0DC012D9366
:102B40003C93CE0183529F4FFC018081918101977C
:102B5000F1F79E0123523F4FD9018D939C930000C2
:102B6000CE0185529F4F9E0125523F4FF901208192
:102B7000318121503109DC0111963C932E93CE0115
:102B800085529F4FFC0180819181009791F63AC058
:102B90008E0105521F4FCE0189529F4FDC016D916E
:102BA0007D918D919C910E94D61FC556DD4F688303
:102BB00079838A839B83CB59D240C556DD4F2881C8
:102BC0003981CB59D240F80131832083CE01815223
:102BD0009F4F9E0125523F4FD9012D913C91FC0101
:102BE00031832083CE0181529F4FDC018D919C91D6
:102BF00011970197F1F79E0121523F4FF9019183FF
:102C00008083000080910E0290910F0290931D022C
:102C100080931C028EE190E0909301028093000269
:102C200010920F0210920E0281E090E090931B022E
:102C300080931A0218C180911A0290911B0200978A
:102C400009F411C19E012F513F4F80E090E0A0EFA9
:102C5000B1E4F90180839183A283B3838E010B5188
:102C60001F4FCE018F519F4F20E030E04AE755E4DF
:102C7000DC016D917D918D919C910E945720C156F0
:102C8000DD4F688379838A839B83CF59D240C156B5
:102C9000DD4F288139814A815B81CF59D240D801EB
:102CA0002D933D934D935C931397CE018B519F4F82
:102CB00020E030E040E85FE3FC01608171818281C7
:102CC00093810E94D11F882354F4CE0187519F4FD6
:102CD00021E030E0DC0111963C932E93A5C0CE019B
:102CE0008B519F4F20E03FEF4FE757E4FC0160819D
:102CF0007181828193810E945220882309F00CF413
:102D000075C0CE018F519F4F20E030E040E251E48A
:102D1000DC016D917D918D919C910E945720CD5544
:102D2000DD4F688379838A839B83C35AD240CD5514
:102D3000DD4F288139814A815B81C35AD240CD570A
:102D4000DE4F288339834A835B83C358D1408E0189
:102D500007511F4FCD57DE4F688179818A819B8152
:102D6000C358D1400E94D61FC955DD4F688379836F
:102D70008A839B83C75AD240C955DD4FE881F981C8
:102D8000C75AD240D8011196FC93EE9326C0CE01CB
:102D900085519F4F20E931E0DC012D933C93CE011A
:102DA00085519F4FFC01808191810197F1F79E0130
:102DB00025513F4FD9018D939C930000CE0187513F
:102DC0009F4F9E0127513F4FF901208131812150B2
:102DD0003109DC0111963C932E93CE0187519F4F10
:102DE000FC0180819181009791F639C08E010751D5
:102DF0001F4FCE018B519F4FDC016D917D918D91C5
:102E00009C910E94D61FC555DD4F688379838A83C4
:102E10009B83CB5AD240C555DD4F28813981CB5A8F
:102E2000D240F80131832083CE0183519F4F9E0110
:102E300027513F4FD9012D913C91FC0131832083D3
:102E4000CE0183519F4FDC018D919C910197F1F749
:102E50009E0123513F4FF90191838083000010921E
:102E60001B0210921A020E942E030C94621F82E22F
:102E700090E0DC012C9182E290E02761FC0120834C
:102E800082E290E0DC012C9182E290E02D7EFC0158
:102E9000208385E290E0DC013C9185E290E020E235
:102EA0002327FC0120838CEE0E94BD019E0121514D
:102EB0003F4F80E090E8ABEBB4E4F901808391836D
:102EC000A283B3838E010D501F4FCE0181519F4FBE
:102ED00020E030E04AE755E4DC016D917D918D9171
:102EE0009C910E945720C155DD4F688379838A8366
:102EF0009B83CF5AD240C155DD4F288139814A8109
:102F00005B81CF5AD240D8012D933D934D935C9372
:102F10001397CE018D509F4F20E030E040E85FE3F3
:102F2000FC0160817181828193810E94D11F88237D
:102F300054F4CE0189509F4F21E030E0DC0111961E
:102F40003C932E93A5C0CE018D509F4F20E03FEFC4
:102F50004FE757E4FC0160817181828193810E9477
:102F60005220882309F00CF475C0CE0181519F4F87
:102F700020E030E040E251E4DC016D917D918D91E3
:102F80009C910E945720CD54DD4F688379838A83BA
:102F90009B83C35BD240CD54DD4F288139814A8168
:102FA0005B81C35BD240C957DE4F288339834A8394
:102FB0005B83C758D1408E0109501F4FC957DE4F60
:102FC000688179818A819B81C758D1400E94D61F30
:102FD000C954DD4F688379838A839B83C75BD24062
:102FE000C954DD4FE881F981C75BD240D801119601
:102FF000FC93EE9326C0CE0187509F4F20E931E02D
:10300000DC012D933C93CE0187509F4FFC018081C2
:1030100091810197F1F79E0127503F4FD9018D9380
:103020009C930000CE0189509F4F9E0129503F4F35
:10303000F9012081318121503109DC0111963C9345
:103040002E93CE0189509F4FFC0180819181009782
:1030500091F639C08E0109501F4FCE018D509F4F00
:10306000DC016D917D918D919C910E94D61FC5547C
:10307000DD4F688379838A839B83CB5BD240C554C1
:10308000DD4F28813981CB5BD240F8013183208329
:10309000CE0185509F4F9E0129503F4FD9012D9160
:1030A0003C91FC0131832083CE0185509F4FDC0190
:1030B0008D919C910197F1F79E0125503F4FF901A9
:1030C00091838083000080E00E94BD0182E290E055
:1030D000DC012C9182E290E02260FC01208385E2F9
:1030E00090E0DC013C9185E290E020E12327FC01A7
:1030F000208383E290E09093010280930002E2C675
:1031000084E10E94BD0186E290E0DC018C91882F71
:1031100090E084709927009709F4D0C680E00E945F
:10312000BD0182E290E0FC01208182E290E020611A
:10313000DC012C9385E290E0FC01308185E290E097
:1031400020E22327DC012C9388E290E09093010297
:1031500080930002B3C689E58093020282E290E088
:10316000FC01208182E290E02E7FDC012C9385E23D
:1031700090E0FC01308185E290E020E42327DC012F
:103180002C9380911C0290911D028130910509F0D1
:1031900024F48CE00E94BD0103C089E10E94BD01BE
:1031A00086E290E0FC018081882F90E08072992770
:1031B000009709F025C180911402909115020097A3
:1031C00009F037C29E0123503F4F80E090E0A0EF0E
:1031D000B1E4F90180839183A283B3838E010F5FF1
:1031E0001E4FCE0183509F4F20E030E04AE755E468
:1031F000DC016D917D918D919C910E945720C1546D
:10320000DD4F688379838A839B83CF5BD240C1542F
:10321000DD4F288139814A815B81CF5BD240D80163
:103220002D933D934D935C931397CE018F5F9E4FEB
:1032300020E030E040E85FE3FC0160817181828141
:1032400093810E94D11F882354F4CE018B5F9E4F3F
:1032500021E030E0DC0111963C932E93A5C0CE0115
:103260008F5F9E4F20E03FEF4FE757E4FC01608106
:103270007181828193810E945220882309F00CF48D
:1032800075C0CE0183509F4F20E030E040E251E412
:10329000DC016D917D918D919C910E945720CD53C1
:1032A000DD4F688379838A839B83C35CD240CD538F
:1032B000DD4F288139814A815B81C35CD240C5578B
:1032C000DE4F288339834A835B83CB58D1408E01FC
:1032D0000B5F1E4FC557DE4F688179818A819B81C4
:1032E000CB58D1400E94D61FC953DD4F68837983E4
:1032F0008A839B83C75CD240C953DD4FE881F98143
:10330000C75CD240D8011196FC93EE9326C0CE0143
:10331000895F9E4F20E931E0DC012D933C93CE0183
:10332000895F9E4FFC01808191810197F1F79E0199
:10333000295F3E4FD9018D939C930000CE018B5F96
:103340009E4F9E012B5F3E4FF9012081318121501C
:103350003109DC0111963C932E93CE018B5F9E4F79
:10336000FC0180819181009791F63AC08E010B5F3C
:103370001E4FCE018F5F9E4FDC016D917D918D912F
:103380009C910E94D61FC553DD4F688379838A8341
:103390009B83CB5CD240C553DD4F28813981CB5C08
:1033A000D240F80131832083CE01875F9E4F9E017A
:1033B0002B5F3E4FD9012D913C91FC01318320833D
:1033C000CE01875F9E4FDC018D919C9111970197F3
:1033D000F1F79E01275F3E4FF90191838083000042
:1033E00080911C0290911D02019790931D02809381
:1033F0001C0281E090E0909315028093140219C1A1
:103400008091140290911502009709F412C19E0157
:10341000255F3E4F80E090E0A0EFB1E4F9018083AA
:103420009183A283B3838E01015F1E4FCE01855F1E
:103430009E4F20E030E04AE755E4DC016D917D913C
:103440008D919C910E945720C153DD4F68837983F1
:103450008A839B83CF5CD240C153DD4F2881398161
:103460004A815B81CF5CD240D8012D933D934D932F
:103470005C931397CE01815F9E4F20E030E040E8DF
:103480005FE3FC0160817181828193810E94D11F81
:10349000882354F4CE018D5E9E4F21E030E0DC01A4
:1034A00011963C932E93A5C0CE01815F9E4F20E0E4
:1034B0003FEF4FE757E4FC01608171818281938186
:1034C0000E945220882309F00CF475C0CE01855F5C
:1034D0009E4F20E030E040E251E4DC016D917D91AF
:1034E0008D919C910E945720CD52DD4F6883798346
:1034F0008A839B83C35DD240CD52DD4F28813981C1
:103500004A815B81C35DD240C157DE4F2883398336
:103510004A835B83CF58D1408E010D5E1E4FC15749
:10352000DE4F688179818A819B81CF58D1400E948A
:10353000D61FC952DD4F688379838A839B83C75D19
:10354000D240C952DD4FE881F981C75DD240D80130
:103550001196FC93EE9326C0CE018B5E9E4F20E920
:1035600031E0DC012D933C93CE018B5E9E4FFC013C
:10357000808191810197F1F79E012B5E3E4FD90129
:103580008D939C930000CE018D5E9E4F9E012D5E1B
:103590003E4FF9012081318121503109DC01119622
:1035A0003C932E93CE018D5E9E4FFC0180819181D4
:1035B000009791F63AC08E010D5E1E4FCE01815FDD
:1035C0009E4FDC016D917D918D919C910E94D61F43
:1035D000C552DD4F688379838A839B83CB5DD2405C
:1035E000C552DD4F28813981CB5DD240F80131834E
:1035F0002083CE01895E9E4F9E012D5E3E4FD901F4
:103600002D913C91FC0131832083CE01895E9E4F38
:10361000DC018D919C9111970197F1F79E01295E34
:103620003E4FF901918380830000109215021092A1
:10363000140280911C0290911D020097E1F482E334
:1036400090E0909301028093000280E00E94BD010F
:1036500082E290E0DC012C9182E290E02160FC01AA
:10366000208385E290E0DC013C9185E290E020E45B
:103670002327FC01208380911C0290911D029093CE
:103680000F0280930E020E942E031CC488E58093D3
:10369000020282E290E0DC012C9182E290E02B7F3A
:1036A000FC01208385E290E0DC013C9185E290E022
:1036B00020E82327FC01208380911E0290911F02A5
:1036C0008130910509F024F48EE10E94BD0103C010
:1036D0008BE40E94BD0186E290E0DC018C91882F92
:1036E00090E088709927009709F025C18091140215
:1036F00090911502009709F037C29E01275E3E4F58
:1037000080E090E0A0EFB1E4F90180839183A2838F
:10371000B3838E01035E1E4FCE01875E9E4F20E075
:1037200030E04AE755E4DC016D917D918D919C91EB
:103730000E945720C152DD4F688379838A839B831F
:10374000CF5DD240C152DD4F288139814A815B81F2
:10375000CF5DD240D8012D933D934D935C93139749
:10376000CE01835E9E4F20E030E040E85FE3FC0145
:1037700060817181828193810E94D11F882354F4DA
:10378000CE018F5D9E4F21E030E0DC0111963C932D
:103790002E93A5C0CE01835E9E4F20E03FEF4FE702
:1037A00057E4FC0160817181828193810E945220E3
:1037B000882309F00CF475C0CE01875E9E4F20E08F
:1037C00030E040E251E4DC016D917D918D919C915E
:1037D0000E945720CD51DD4F688379838A839B8374
:1037E000C35ED240CD51DD4F288139814A815B8152
:1037F000C35ED240CD56DE4F288339834A835B8334
:10380000C359D1408E010F5D1E4FCD56DE4F6881EA
:1038100079818A819B81C359D1400E94D61FC951A9
:10382000DD4F688379838A839B83C75ED240C95109
:10383000DD4FE881F981C75ED240D8011196FC9333
:10384000EE9326C0CE018D5D9E4F20E931E0DC0174
:103850002D933C93CE018D5D9E4FFC018081918123
:103860000197F1F79E012D5D3E4FD9018D939C93F9
:103870000000CE018F5D9E4F9E012F5D3E4FF901EE
:103880002081318121503109DC0111963C932E9326
:10389000CE018F5D9E4FFC0180819181009791F652
:1038A0003AC08E010F5D1E4FCE01835E9E4FDC013C
:1038B0006D917D918D919C910E94D61FC551DD4FD8
:1038C000688379838A839B83CB5ED240C551DD4F69
:1038D00028813981CB5ED240F80131832083CE012B
:1038E0008B5D9E4F9E012F5D3E4FD9012D913C91E6
:1038F000FC0131832083CE018B5D9E4FDC018D91D5
:103900009C9111970197F1F79E012B5D3E4FF901B4
:1039100091838083000080911E0290911F02019785
:1039200090931F0280931E0281E090E09093150215
:103930008093140219C1809114029091150200978E
:1039400009F412C19E01295D3E4F80E090E0A0EF96
:10395000B1E4F90180839183A283B3838E01055D75
:103960001E4FCE01895D9E4F20E030E04AE755E4CE
:10397000DC016D917D918D919C910E945720C151E8
:10398000DD4F688379838A839B83CF5ED240C151A8
:10399000DD4F288139814A815B81CF5ED240D801D9
:1039A0002D933D934D935C931397CE01855D9E4F70
:1039B00020E030E040E85FE3FC01608171818281BA
:1039C00093810E94D11F882354F4CE01815D9E4FC4
:1039D00021E030E0DC0111963C932E93A5C0CE018E
:1039E000855D9E4F20E03FEF4FE757E4FC0160818B
:1039F0007181828193810E945220882309F00CF406
:103A000075C0CE01895D9E4F20E030E040E251E478
:103A1000DC016D917D918D919C910E945720CD503C
:103A2000DD4F688379838A839B83C35FD240CD5007
:103A3000DD4F288139814A815B81C35FD240C956FD
:103A4000DE4F288339834A835B83C759D1408E0177
:103A5000015D1E4FC956DE4F688179818A819B8145
:103A6000C759D1400E94D61FC950DD4F6883798362
:103A70008A839B83C75FD240C950DD4FE881F981BB
:103A8000C75FD240D8011196FC93EE9326C0CE01B9
:103A90008F5C9E4F20E931E0DC012D933C93CE01F9
:103AA0008F5C9E4FFC01808191810197F1F79E010F
:103AB0002F5C3E4FD9018D939C930000CE01815D18
:103AC0009E4F9E01215D3E4FF901208131812150A1
:103AD0003109DC0111963C932E93CE01815D9E4FFE
:103AE000FC0180819181009791F63AC08E01015DC1
:103AF0001E4FCE01855D9E4FDC016D917D918D91B4
:103B00009C910E94D61FC550DD4F688379838A83BC
:103B10009B83CB5FD240C550DD4F28813981CB5F7D
:103B2000D240F80131832083CE018D5C9E4F9E01EF
:103B3000215D3E4FD9012D913C91FC0131832083C1
:103B4000CE018D5C9E4FDC018D919C911197019768
:103B5000F1F79E012D5C3E4FF901918380830000B7
:103B6000109215021092140280911E0290911F0271
:103B70000097C1F480E00E94BD0182E290E024E061
:103B8000DC012C9385E290E0FC01308185E290E03D
:103B900020E82327DC012C938CE390E09093010232
:103BA0008093000280911E0290911F0290930F0259
:103BB00080930E020E942E0385C182E290E02FEED8
:103BC000FC01208385E290E0DC013C9185E290E0FD
:103BD00020E22327FC01208384E10E94BD019E0195
:103BE0002B5C3E4F80E090E8ABEBB4E4F9018083BE
:103BF0009183A283B3838E01075C1E4FCE018B5C41
:103C00009E4F20E030E04AE755E4DC016D917D9164
:103C10008D919C910E945720C150DD4F688379831C
:103C20008A839B83CF5FD240C150DD4F2881398189
:103C30004A815B81CF5FD240D8012D933D934D9354
:103C40005C931397CE01875C9E4F20E030E040E804
:103C50005FE3FC0160817181828193810E94D11FA9
:103C6000882354F4CE01835C9E4F21E030E0DC01D8
:103C700011963C932E93A5C0CE01875C9E4F20E009
:103C80003FEF4FE757E4FC016081718182819381AE
:103C90000E945220882309F00CF475C0CE018B5C81
:103CA0009E4F20E030E040E251E4DC016D917D91D7
:103CB0008D919C910E945720CD5FDC4F6883798362
:103CC0008A839B83C350D340CD5FDC4F28813981E9
:103CD0004A815B81C350D340C556DE4F2883398368
:103CE0004A835B83CB59D1408E01035C1E4FC5567E
:103CF000DE4F688179818A819B81CB59D1400E94B6
:103D0000D61FC95FDC4F688379838A839B83C75042
:103D1000D340C95FDC4FE881F981C750D340D80157
:103D20001196FC93EE9326C0CE01815C9E4F20E954
:103D300031E0DC012D933C93CE01815C9E4FFC0170
:103D4000808191810197F1F79E01215C3E4FD9015D
:103D50008D939C930000CE01835C9E4F9E01235C5B
:103D60003E4FF9012081318121503109DC0111964A
:103D70003C932E93CE01835C9E4FFC018081918108
:103D8000009791F639C08E01035C1E4FCE01875C0F
:103D90009E4FDC016D917D918D919C910E94D61F6B
:103DA000C55FDC4F688379838A839B83CB50D34084
:103DB000C55FDC4F28813981CB50D340F801318376
:103DC0002083CE018F5B9E4F9E01235C3E4FD90125
:103DD0002D913C91FC0131832083CE018F5B9E4F5E
:103DE000DC018D919C910197F1F79E012F5B3E4F75
:103DF000F90191838083000080E00E94BD0182E28E
:103E000090E02DEFDC012C9385E290E0FC01308105
:103E100085E290E020E12327DC012C9381E490E00F
:103E200090930102809300024DC08CEE0E94BD0170
:103E300086E290E0FC018081882F90E084709927D1
:103E4000009709F43EC080E00E94BD0182E290E04C
:103E500020E1DC012C9385E290E0FC01308185E2D9
:103E600090E020E22327DC012C9382E290E022E024
:103E7000FC01208385E290E0DC013C9185E290E04A
:103E800020E12327FC01208386E490E09093010247
:103E90008093000216C08AE090E090930102809324
:103EA000000210C082E7809302020E942E030AC023
:103EB00000000C94BD0300000C94BD0300000C94A2
:103EC000BD0300000C94BD031F920F920FB60F921A
:103ED00011242F933F935F936F937F938F939F93BF
:103EE000AF93BF93CF93DF93CDB7DEB780910E0230
:103EF00090910F022AE030E0B9010E94921F809356
:103F000010020000DF91CF91BF91AF919F918F91EF
:103F10007F916F915F913F912F910F900FBE0F9006
:103F20001F90189597FB072E16F4009407D077FD85
:103F300009D00E94BD1F07FC05D03EF490958195E5
:103F40009F4F0895709561957F4F0895EE0FFF1F65
:103F5000881F8BBF0790F691E02D1994A29FB001A6
:103F6000B39FC001A39F700D811D1124911DB29FAD
:103F7000700D811D1124911D0895AA1BBB1B51E1D9
:103F800007C0AA1FBB1FA617B70710F0A61BB70BC9
:103F9000881F991F5A95A9F780959095BC01CD016E
:103FA00008950E94052008F481E008950E943120C0
:103FB00088F09F5798F0B92F9927B751B0F0E1F0EA
:103FC000660F771F881F991F1AF0BA95C9F714C09A
:103FD000B13091F00E944B20B1E008950C944B2039
:103FE000672F782F8827B85F39F0B93FCCF38695D3
:103FF00077956795B395D9F73EF490958095709530
:1040000061957F4F8F4F9F4F0895990F0008550F6F
:10401000AA0BE0E8FEEF16161706E807F907C0F04E
:1040200012161306E407F50798F0621B730B840B56
:10403000950B39F40A2661F0232B242B252B21F430
:1040400008950A2609F4A140A6958FEF811D811DD0
:10405000089557FD9058440F551F59F05F3F71F078
:104060004795880F97FB991F61F09F3F79F08795DF
:104070000895121613061406551FF2CF4695F1DF68
:1040800008C0161617061806991FF1CF86957105F8
:10409000610508940895E894BB2766277727CB012C
:1040A00097F908950E94052008F48FEF08950E9463
:1040B0006A200C94DB200E94CD2038F00E94D4208E
:1040C00020F0952311F00C94C4200C94CA201124E4
:1040D0000C944C200E94292070F3959FC1F3950FFA
:1040E00050E0551F629FF001729FBB27F00DB11D7C
:1040F000639FAA27F00DB11DAA1F649F6627B00D0C
:10410000A11D661F829F2227B00DA11D621F739FF4
:10411000B00DA11D621F839FA00D611D221F749F02
:104120003327A00D611D231F849F600D211D822F49
:10413000762F6A2F11249F5750409AF0F1F0882370
:104140004AF0EE0FFF1FBB1F661F771F881F91509D
:104150005040A9F79E3F510580F00C94C4200C9468
:104160004C205F3FE4F3983ED4F3869577956795AE
:10417000B795F795E7959F5FC1F7FE2B880F911DC7
:104180009695879597F9089597F99F6780E870E06D
:1041900060E008959FEF80EC089500240A941616BD
:1041A000170618060906089500240A941216130625
:1041B000140605060895092E0394000C11F48823B3
:1041C00052F0BB0F40F4BF2B11F460FF04C06F5FCF
:1041D0007F4F8F4F9F4F0895F894FFCFAB04060594
:1041E0004E05521F521F521F521F521F521F521F65
:1041F0009805521F521F521F521FDF0D521F521F90
:10420000521F521F3717521F521F521F521F801822
:10421000521F521F521F521FAB18521F521F521FC4
:10422000521F521F521F521F521F521F461B521F16
:10423000521F521F521F521F521F521F521F521FF6
:10424000DD1D521F521F521F521F151F521F521F9A
:06425000521F521F4B1F1C
:0E4256000A0065039F250D9949411F011900BB
:00000001FF
