:100000000C9480000C94A1000C94A1000C94A1000D
:100010000C94A1000C94A1000C94A1000C94A100DC
:100020000C94A1000C94A1000C94A1000C94A100CC
:100030000C94A1000C94A1000C94A1000C94A100BC
:100040000C94A1000C94A1000C94A1000C94A100AC
:100050000C94A1000C9412010C9440010C94A30088
:100060000C94A1000C94A1000C94A1000C94A1008C
:100070000C94A1000C94A1000C94A1000C94A1007C
:100080000C94A1000C94A1000C94A1000C94A1006C
:100090000C94A1000C94A1000C94A1000C94A1005C
:1000A0000C94A1000C94A1000C94DB1A0C94A100F8
:1000B0000C94A1000C94A1000C94A1000C94A1003C
:1000C0000C94A1000C94A1000C94A1000C94A1002C
:1000D0000C94A1000C94A1000C94A1000C94A1001C
:1000E0000C94A1000C944B130C940D170C948B19C9
:1000F0000C940A060C94AD030C944E0C0C948F14C3
:1001000011241FBECFEFD1E2DEBFCDBF00E00CBF98
:1001100012E0A0E0B2E0E8EDF8E300E00BBF02C0BF
:1001200007900D92A231B107D9F722E0A2E1B2E027
:1001300001C01D92A232B207E1F70E9487030C941E
:10014000631C0C9400001F920F920FB60F921124A3
:100150000BB60F922F938F939F93EF93FF93CF93B1
:10016000DF93CDB7DEB787E490E0FC018081882380
:10017000C9F488E490E0FC018081882399F482E04E
:1001800091E0FC01208182E091E02F7BFC01208343
:1001900081E390E0FC01208181E390E02F7DFC0170
:1001A000208331C087E490E0FC018081882399F0AE
:1001B00081E390E0FC01208181E390E02F7DFC0150
:1001C000208382E091E0FC01208182E091E02064C4
:1001D000FC01208318C088E490E0FC018081882322
:1001E00091F082E091E0FC01208182E091E02F7BA0
:1001F000FC01208381E390E0FC01208181E390E019
:100200002062FC0120830000DF91CF91FF91EF91EC
:100210009F918F912F910F900BBE0F900FBE0F905B
:100220001F9018951F920F920FB60F9211240BB6C4
:100230000F922F938F939F93EF93FF93CF93DF931F
:10024000CDB7DEB787E490E0FC0180818F3F49F0B5
:1002500082E091E0FC01208182E091E02F7BFC01B3
:1002600020830000DF91CF91FF91EF919F918F91BB
:100270002F910F900BBE0F900FBE0F901F901895EF
:100280001F920F920FB60F9211240BB60F922F935D
:100290008F939F93EF93FF93CF93DF93CDB7DEB709
:1002A00088E490E0FC0180818F3F49F081E390E099
:1002B000FC01208181E390E02F7DFC012083000080
:1002C000DF91CF91FF91EF919F918F912F910F909F
:1002D0000BBE0F900FBE0F901F901895CF93DF931A
:1002E000CDB7DEB781E091E0FC01208181E091E0B3
:1002F0002064FC01208380E390E0FC01208180E306
:1003000090E02062FC01208382E091E0FC012081EA
:1003100082E091E02F7BFC01208381E390E0FC01EF
:10032000208181E390E02F7DFC01208384E490E034
:10033000FC01108285E490E023E0FC01208387E447
:1003400090E0FC01108288E490E0FC0110828EE6CF
:1003500090E027E0FC01208378940000DF91CF91AA
:100360000895CF93DF930F92CDB7DEB7898389814C
:100370008C39E4F18981843609F0C4F589818823B8
:10038000DCF088E490E0FC0110828981082E000CEA
:10039000990B2FEF289FA001299F500D112424E6CF
:1003A00030E0CA01B9010E94091BCB019C0187E41E
:1003B00090E0FC0120831AC087E490E0FC011082E9
:1003C0008981082E000C990B2FEF289FA001299FEF
:1003D000500D11242CE93FEFCA01B9010E94091BFD
:1003E000CB019C0188E490E0FC01208300000F9089
:1003F000DF91CF910895CF93DF93CDB7DEB70E9401
:100400006E0180E390E0FC01208180E390E0277F93
:10041000FC01208387E290E0FC018081282F2F6778
:1004200087E290E0FC01208381E290E0FC01808182
:10043000282F2F6781E290E0FC01208382E290E088
:10044000FC01208182E290E02068FC01208381E0B1
:1004500091E0FC01208181E091E02063FC01208398
:1004600083E390E0FC01208183E390E02062FC01C3
:10047000208382E091E0FC01208182E091E02F7EE8
:10048000FC01208384E390E0FC01208184E390E080
:100490002F7DFC01208380EA90E0FC01108281EA3C
:1004A00090E0FC01108284EA90E0FC01118210824D
:1004B00088EA90E02CED35E0FC013183208381EA6D
:1004C00090E0FC01208181EA90E02860FC0120831B
:1004D00081EA90E0FC01208181EA90E02560FC0146
:1004E000208382E790E0FC01208182E790E0226097
:1004F000FC01208378940000DF91CF910895CF9381
:10050000DF9300D00F92CDB7DEB78C838C818983C7
:100510001A8232C0898181708B838B81882359F044
:1005200054F082E091E0FC01208182E091E02062C1
:10053000FC01208309C082E091E0FC01208182E07F
:1005400091E02F7DFC01208382E091E0FC0120817D
:1005500082E091E02061FC01208382E091E0FC01D7
:10056000208182E091E02F7EFC01208389818595A6
:1005700089838A818F5F8A838A81873059F254F216
:10058000000000000F900F900F900F90DF91CF911F
:100590000895CF93DF930F92CDB7DEB7898389811A
:1005A000282F880F330B80E890E002C0959587953F
:1005B0002A95E2F70E947F0200000F90DF91CF9111
:1005C0000895CF93DF930F920F92CDB7DEB7898353
:1005D0006A8389810E947F028A810E94C90284E322
:1005E00090E0FC01208184E390E02062FC01208304
:1005F00084E390E0FC01208184E390E02F7DFC0106
:10060000208300000F900F90DF91CF910895CF933A
:10061000DF93CDB7DEB780910402082E000C990B52
:100620008835910521F08935910599F160C088EAF6
:1006300090E0FC01408151819A01ADECBCEC0E943C
:10064000251B9C0136952795369527953695279538
:10065000C901880F991F880F991F820F931F880F58
:10066000991F9A01281B390B2115310549F460E0C7
:100670008FEE0E94E10261E08FEE0E94E10237C03E
:1006800060E083EE0E94E10261E08FEE0E94E102F1
:100690002EC088EA90E0FC0140815181CA01969504
:1006A0008795969587959C01ABE7B4E10E94251B41
:1006B0009695879564E6689F9001699F300D112497
:1006C000CA01821B930B009749F460E083EF0E94FC
:1006D000E10261E08FEF0E94E10208C060E083EE7A
:1006E0000E94E10261E08FEE0E94E1020000809131
:1006F0001402082E000C990B895F9D4FFC0180812C
:1007000063E00E94E1020000DF91CF9108950F9312
:100710001F93CF93DF93CDB7DEB7CA5AD2400FB63F
:10072000F894DEBF0FBECDBF0E94FB0180911E0278
:1007300090911F02092E000CAA0BBB0B863091056D
:10074000A105B10519F010F00C94D01AFC0188270E
:10075000EB59F34E8F4F0C941D1B85E680930402DA
:100760008FE290E0DC018C91882F90E088709927CF
:10077000009709F0C9C080911C0290911D0200975A
:1007800009F085C180E090E0A0E7B2E48B839C8310
:10079000AD83BE8320E030E04AE755E46B817C8185
:1007A0008D819E810E94CE1BC559DE4F688379835F
:1007B0008A839B83CB56D140C559DE4F888199816E
:1007C000AA81BB81CB56D1408F839887A987BA87EE
:1007D00020E030E040E85FE36F81788589859A8585
:1007E0000E94481B88232CF481E090E09C878B8733
:1007F00076C020E03FEF4FE757E46F817885898529
:100800009A850E94C91B882309F00CF452C020E08D
:1008100030E040E251E46B817C818D819E810E94B9
:10082000CE1BC159DE4F688379838A839B83CF5661
:10083000D140C159DE4F88819981AA81BB81CF56B1
:10084000D140C55EDE4F88839983AA83BB83CB5199
:10085000D140C55EDE4F688179818A819B81CB5111
:10086000D1400E944D1BCD58DE4F688379838A8327
:100870009B83C357D140CD58DE4FA881B981C35760
:10088000D140BC87AB8710C080E991E09E878D87FF
:100890008D859E850197F1F79E878D8700008B855A
:1008A0009C8501979C878B878B859C85009761F73A
:1008B00021C06F81788589859A850E944D1BC95812
:1008C000DE4F688379838A839B83C757D140C95899
:1008D000DE4FE881F981C757D140FC87EB878B85D4
:1008E0009C85988B8F878F8598890197F1F7988BD6
:1008F0008F87000080911E0290911F0201969093B5
:100900001F0280931E02C3C080911C0290911D02A1
:10091000009709F4BCC080E090E0A0E7B2E4898BC6
:100920009A8BAB8BBC8B20E030E04AE755E46989B9
:100930007A898B899C890E94CE1BC558DE4F6883BB
:1009400079838A839B83CB57D140C558DE4F8881FA
:100950009981AA81BB81CB57D1408D8B9E8BAF8B68
:10096000B88F20E030E040E85FE36D897E898F89B1
:10097000988D0E94481B88232CF481E090E09A8F88
:10098000898F76C020E03FEF4FE757E46D897E897D
:100990008F89988D0E94C91B882309F00CF452C0DE
:1009A00020E030E040E251E469897A898B899C89B2
:1009B0000E94CE1BC158DE4F688379838A839B8354
:1009C000CF57D140C158DE4F88819981AA81BB8120
:1009D000CF57D140C15EDE4F88839983AA83BB8302
:1009E000CF51D140C15EDE4F688179818A819B8180
:1009F000CF51D1400E944D1BCD57DE4F6883798384
:100A00008A839B83C358D140CD57DE4FA881B981DB
:100A1000C358D140BA8FA98F10C080E991E09C8F54
:100A20008B8F8B8D9C8D0197F1F79C8F8B8F0000A6
:100A3000898D9A8D01979A8F898F898D9A8D0097CC
:100A400061F721C06D897E898F89988D0E944D1B29
:100A5000C957DE4F688379838A839B83C758D14007
:100A6000C957DE4FE881F981C758D140FA8FE98F25
:100A7000898D9A8D9E8F8D8F8D8D9E8D0197F1F72B
:100A80009E8F8D8F000010921D0210921C0280E03C
:100A90000E94B10182E290E027E0DC012C9382E227
:100AA00090E02DEFFC0120838091200290912102A3
:100AB0008230910509F467C08230910519F014F075
:100AC0000C94D51A009729F08130910579F10C9496
:100AD000D51A81E090E090931302809312020E9455
:100AE000070382E290E02FEEDC012C938AE00E9463
:100AF000B10186E290E0FC018081882F90E0847053
:100B00009927009709F480C080E00E94B10180918C
:100B1000200290912102019690932102809320025D
:100B200082E290E020E1DC012C936EC082E090E054
:100B300090931302809312020E94070382E290E0D6
:100B40002EEFFC01208384E60E94B10186E290E052
:100B5000DC018C91882F90E080749927009709F42C
:100B600056C080E00E94B101809120029091210244
:100B70000196909321028093200282E290E021E08E
:100B8000FC01208344C083E090E0909313028093A3
:100B900012020E94070382E290E02BEFDC012C930B
:100BA0008AE00E94B10186E290E0FC018081882FFA
:100BB00090E0807199270097F1F080E00E94B101E8
:100BC00080912002909121020196909321028093BE
:100BD000200280911E0290911F02019690931F02A5
:100BE00080931E0282E290E024E0DC012C931092BC
:100BF000130210921202109203021092020210923B
:100C000001021092000204C000000C94D51A0000EA
:100C10000C94D51A88E5809304028FE290E0FC01E1
:100C20008081882F90E082709927009709F0DDC0BD
:100C30008091180290911902009709F099C180E003
:100C400090E0A0EFB1E48F8F98A3A9A3BAA320E00E
:100C500030E04AE755E46F8D78A189A19AA10E94FE
:100C6000CE1BC557DE4F688379838A839B83CB581D
:100C7000D140C557DE4F88819981AA81BB81CB586D
:100C8000D1408BA39CA3ADA3BEA320E030E040E8FD
:100C90005FE36BA17CA18DA19EA10E94481B8823CC
:100CA0002CF481E090E098A78FA376C020E03FEF7E
:100CB0004FE757E46BA17CA18DA19EA10E94C91BA7
:100CC000882309F00CF452C020E030E040E251E407
:100CD0006F8D78A189A19AA10E94CE1BC157DE4FCA
:100CE000688379838A839B83CF58D140C157DE4F75
:100CF00088819981AA81BB81CF58D140CD5DDE4FDB
:100D000088839983AA83BB83C352D140CD5DDE4FD4
:100D1000688179818A819B81C352D1400E944D1B99
:100D2000CD56DE4F688379838A839B83C359D14034
:100D3000CD56DE4FA881B981C359D140B8A7AFA322
:100D400010C080E991E09AA789A789A59AA5019783
:100D5000F1F79AA789A700008FA198A5019798A7F6
:100D60008FA38FA198A5009761F721C06BA17CA1EB
:100D70008DA19EA10E944D1BC956DE4F68837983C9
:100D80008A839B83C759D140C956DE4FE881F981D8
:100D9000C759D140F8A7EFA38FA198A59CA78BA70F
:100DA0008BA59CA50197F1F79CA78BA700008091CC
:100DB000120290911302009759F054F080911202A0
:100DC000909113020197909313028093120206C030
:100DD00088E090E0909313028093120281E090E00B
:100DE0009093190280931802C3C0809118029091C9
:100DF0001902009709F4BCC080E090E0A0EFB1E4D4
:100E00008DA79EA7AFA7B8AB20E030E04AE755E436
:100E10006DA57EA58FA598A90E94CE1BC556DE4F55
:100E2000688379838A839B83CB59D140C556DE4F33
:100E300088819981AA81BB81CB59D14089AB9AAB7A
:100E4000ABABBCAB20E030E040E85FE369A97AA936
:100E50008BA99CA90E94481B88232CF481E090E078
:100E60009EAB8DAB76C020E03FEF4FE757E469A91A
:100E70007AA98BA99CA90E94C91B882309F00CF4AC
:100E800052C020E030E040E251E46DA57EA58FA580
:100E900098A90E94CE1BC156DE4F688379838A834E
:100EA0009B83CF59D140C156DE4F88819981AA8159
:100EB000BB81CF59D140C95DDE4F88839983AA8316
:100EC000BB83C752D140C95DDE4F688179818A8179
:100ED0009B81C752D1400E944D1BCD55DE4F688388
:100EE00079838A839B83C35AD140CD55DE4FA88135
:100EF000B981C35AD140BEABADAB10C080E991E01F
:100F000098AF8FAB8FA998AD0197F1F798AF8FABE2
:100F100000008DA99EA901979EAB8DAB8DA99EA9BE
:100F2000009761F721C069A97AA98BA99CA90E94A1
:100F30004D1BC955DE4F688379838A839B83C75ACB
:100F4000D140C955DE4FE881F981C75AD140FEAB87
:100F5000EDAB8DA99EA99AAF89AF89AD9AAD0197E6
:100F6000F1F79AAF89AF000010921902109218029F
:100F70008FE290E0DC018C91882F90E088709927B7
:100F8000009709F021C180911C0290911D020097E9
:100F900009F030C280E090E0A0EFB1E48BAF9CAFED
:100FA000ADAFBEAF8E01015C1F4F20E030E04AE7DD
:100FB00055E46BAD7CAD8DAD9EAD0E94CE1BC5558D
:100FC000DE4F688379838A839B83CB5AD140C55592
:100FD000DE4F88819981AA81BB81CB5AD140F8012B
:100FE00080839183A283B383CE01CF9620E030E04B
:100FF00040E85FE3DC016D917D918D919C910E94B1
:10100000481B88234CF4CE018D5B9F4F21E030E0DC
:10101000FC01318320839FC0CE01CF9620E03FEFBB
:101020004FE757E4DC016D917D918D919C910E9479
:10103000C91B882309F00CF471C020E030E040E2C5
:1010400051E46BAD7CAD8DAD9EAD0E94CE1BC15504
:10105000DE4F688379838A839B83CF5AD140C15501
:10106000DE4F88819981AA81BB81CF5AD140C55D6D
:10107000DE4F88839983AA83BB83CB52D1408E01F4
:101080000D5B1F4FC55DDE4F688179818A819B8131
:10109000CB52D1400E944D1BCD54DE4F68837983E3
:1010A0008A839B83C35BD140CD54DE4FE881F981B5
:1010B000C35BD140D8011196FC93EE9326C0CE01BC
:1010C0008B5B9F4F20E931E0DC012D933C93CE01F7
:1010D0008B5B9F4FFC01808191810197F1F79E010D
:1010E0002B5B3F4FD9018D939C930000CE018D5B0C
:1010F0009F4F9E012D5B3F4FF9012081318121508F
:101100003109DC0111963C932E93CE018D5B9F4FEC
:10111000FC0180819181009791F639C08E010D5BB1
:101120001F4FCE01CF96DC016D917D918D919C91E9
:101130000E944D1BC954DE4F688379838A839B8349
:10114000C75BD140C954DE4F88819981C75BD140CC
:10115000F80191838083CE01895B9F4F9E012D5BB7
:101160003F4FD9012D913C91FC0131832083CE0169
:10117000895B9F4FDC018D919C9111970197F1F74D
:101180009E01295B3F4FF90191838083000080918C
:101190001202909113028730910509F054F4809166
:1011A00012029091130201969093130280931202FF
:1011B00004C0109213021092120281E090E090930A
:1011C0001D0280931C0216C180911C0290911D0289
:1011D000009709F40FC19E01275B3F4F80E090E02C
:1011E000A0EFB1E4F90180839183A283B3838E01E0
:1011F000035B1F4FCE01875B9F4F20E030E04AE743
:1012000055E4DC016D917D918D919C910E94CE1BE6
:10121000C554DE4F688379838A839B83CB5BD1403F
:10122000C554DE4F88819981AA81BB81CB5BD140B7
:10123000F80180839183A283B383CE01835B9F4FA8
:1012400020E030E040E85FE3DC016D917D918D911D
:101250009C910E94481B88234CF4CE018F5A9F4FCB
:1012600021E030E0FC0131832083A5C0CE01835B07
:101270009F4F20E03FEF4FE757E4DC016D917D91F8
:101280008D919C910E94C91B882309F00CF475C0B4
:10129000CE01875B9F4F20E030E040E251E4FC014B
:1012A00060817181828193810E94CE1BC154DE4F87
:1012B000688379838A839B83CF5BD140C154DE4F9F
:1012C00088819981AA81BB81CF5BD140C15DDE4F0E
:1012D00088839983AA83BB83CF52D1408E010F5A52
:1012E0001F4FC15DDE4F688179818A819B81CF521A
:1012F000D1400E944D1BCD53DE4F688379838A8392
:101300009B83C35CD140CD53DE4FE881F981C35C40
:10131000D140D8011196FC93EE9326C0CE018D5A90
:101320009F4F20E931E0DC012D933C93CE018D5A93
:101330009F4FFC01808191810197F1F79E012D5A09
:101340003F4FD9018D939C930000CE018F5A9F4F40
:101350009E012F5A3F4FF9012081318121503109DF
:10136000DC0111963C932E93CE018F5A9F4FFC01C6
:1013700080819181009791F639C08E010F5A1F4FDD
:10138000CE01835B9F4FDC016D917D918D919C918E
:101390000E944D1BC953DE4F688379838A839B83E8
:1013A000C75CD140C953DE4F88819981C75CD14069
:1013B000F80191838083CE018B5A9F4F9E012F5A53
:1013C0003F4FD9012D913C91FC0131832083CE0107
:1013D0008B5A9F4FDC018D919C910197F1F79E01F3
:1013E0002B5A3F4FF90191838083000010921D0218
:1013F00010921C028FE290E0DC018C91882F90E02B
:1014000084709927009709F02FC180911A0290915A
:101410001B02009709F03EC29E01295A3F4F80E00F
:1014200090E0A0EFB1E4F90180839183A283B383BC
:101430008E01055A1F4FCE01895A9F4F20E030E0A0
:101440004AE755E4DC016D917D918D919C910E945C
:10145000CE1BC553DE4F688379838A839B83CB5C25
:10146000D140C553DE4F88819981AA81BB81CB5C75
:10147000D140F80180839183A283B383CE01855A42
:101480009F4F20E030E040E85FE3DC016D917D910B
:101490008D919C910E94481B88234CF4CE01815A67
:1014A0009F4F21E030E0FC0131832083A5C0CE01B5
:1014B000855A9F4F20E03FEF4FE757E4DC016D91E5
:1014C0007D918D919C910E94C91B882309F00CF499
:1014D00075C0CE01895A9F4F20E030E040E251E4D0
:1014E000FC0160817181828193810E94CE1BC15376
:1014F000DE4F688379838A839B83CF5CD140C1535D
:10150000DE4F88819981AA81BB81CF5CD140CD5CBF
:10151000DE4F88839983AA83BB83C353D1408E0156
:10152000015A1F4FCD5CDE4F688179818A819B8192
:10153000C353D1400E944D1BCD52DE4F6883798347
:101540008A839B83C35DD140CD52DE4FE881F98110
:10155000C35DD140D8011196FC93EE9326C0CE0115
:101560008F599F4F20E931E0DC012D933C93CE0150
:101570008F599F4FFC01808191810197F1F79E0166
:101580002F593F4FD9018D939C930000CE01815A72
:101590009F4F9E01215A3F4FF901208131812150F7
:1015A0003109DC0111963C932E93CE01815A9F4F55
:1015B000FC0180819181009791F63AC08E01015A19
:1015C0001F4FCE01855A9F4FDC016D917D918D910A
:1015D0009C910E944D1BC952DE4F688379838A8398
:1015E0009B83C75DD140C952DE4F88819981C75D19
:1015F000D140F80191838083CE018D599F4F9E0188
:10160000215A3F4FD9012D913C91FC013183208318
:10161000CE018D599F4FDC018D919C9111970197BF
:10162000F1F79E012D593F4FF9019183808300000E
:101630008091120290911302909303028093020210
:1016400080911E0290911F02019690931F02809339
:101650001E02109213021092120281E090E0909309
:101660001B0280931A0216C180911A0290911B02EC
:10167000009709F40FC19E012B593F4F80E090E085
:10168000A0EFB1E4F90180839183A283B3838E013B
:1016900007591F4FCE018B599F4F20E030E04AE79A
:1016A00055E4DC016D917D918D919C910E94CE1B42
:1016B000C552DE4F688379838A839B83CB5DD1409B
:1016C000C552DE4F88819981AA81BB81CB5DD14013
:1016D000F80180839183A283B383CE0187599F4F02
:1016E00020E030E040E85FE3DC016D917D918D9179
:1016F0009C910E94481B88234CF4CE0183599F4F34
:1017000021E030E0FC0131832083A5C0CE01875960
:101710009F4F20E03FEF4FE757E4DC016D917D9153
:101720008D919C910E94C91B882309F00CF475C00F
:10173000CE018B599F4F20E030E040E251E4FC01A4
:1017400060817181828193810E94CE1BC152DE4FE4
:10175000688379838A839B83CF5DD140C152DE4FFA
:1017600088819981AA81BB81CF5DD140C95CDE4F60
:1017700088839983AA83BB83C753D1408E010359C1
:101780001F4FC95CDE4F688179818A819B81C75375
:10179000D1400E944D1BCD51DE4F688379838A83EF
:1017A0009B83C35ED140CD51DE4FE881F981C35E9A
:1017B000D140D8011196FC93EE9326C0CE018159F9
:1017C0009F4F20E931E0DC012D933C93CE018159FC
:1017D0009F4FFC01808191810197F1F79E01215972
:1017E0003F4FD9018D939C930000CE0183599F4FA9
:1017F0009E0123593F4FF901208131812150310948
:10180000DC0111963C932E93CE0183599F4FFC012E
:1018100080819181009791F639C08E0103591F4F45
:10182000CE0187599F4FDC016D917D918D919C91E7
:101830000E944D1BC951DE4F688379838A839B8345
:10184000C75ED140C951DE4F88819981C75ED140C2
:10185000F80191838083CE018F589F4F9E012359B9
:101860003F4FD9012D913C91FC0131832083CE0162
:101870008F589F4FDC018D919C910197F1F79E014C
:101880002F583F4FF90191838083000010921B0273
:1018900010921A020E9407030C94D91A89E58093CA
:1018A00004028FE290E0DC018C91882F90E082703E
:1018B0009927009709F031C180911802909119027F
:1018C000009709F040C29E012D583F4F80E090E004
:1018D000A0EFB1E4F90180839183A283B3838E01E9
:1018E00009581F4FCE018D589F4F20E030E04AE746
:1018F00055E4DC016D917D918D919C910E94CE1BF0
:10190000C551DE4F688379838A839B83CB5ED14048
:10191000C551DE4F88819981AA81BB81CB5ED140C0
:10192000F80180839183A283B383CE0189589F4FAE
:1019300020E030E040E85FE3DC016D917D918D9126
:101940009C910E94481B88234CF4CE0185589F4FE0
:1019500021E030E0FC0131832083A5C0CE0189580D
:101960009F4F20E03FEF4FE757E4DC016D917D9101
:101970008D919C910E94C91B882309F00CF475C0BD
:10198000CE018D589F4F20E030E040E251E4FC0151
:1019900060817181828193810E94CE1BC151DE4F93
:1019A000688379838A839B83CF5ED140C151DE4FA8
:1019B00088819981AA81BB81CF5ED140C55CDE4F11
:1019C00088839983AA83BB83CB53D1408E0105586A
:1019D0001F4FC55CDE4F688179818A819B81CB5323
:1019E000D1400E944D1BCD50DE4F688379838A839E
:1019F0009B83C35FD140CD50DE4FE881F981C35F47
:101A0000D140D8011196FC93EE9326C0CE018358A5
:101A10009F4F20E931E0DC012D933C93CE018358A8
:101A20009F4FFC01808191810197F1F79E0123581E
:101A30003F4FD9018D939C930000CE0185589F4F55
:101A40009E0125583F4FF9012081318121503109F4
:101A5000DC0111963C932E93CE0185589F4FFC01DB
:101A600080819181009791F63AC08E0105581F4FF1
:101A7000CE0189589F4FDC016D917D918D919C9194
:101A80000E944D1BC950DE4F688379838A839B83F4
:101A9000C75FD140C950DE4F88819981C75FD1406F
:101AA000F80191838083CE0181589F4F9E01255874
:101AB0003F4FD9012D913C91FC0131832083CE0110
:101AC00081589F4FDC018D919C9111970197F1F7FF
:101AD0009E0121583F4FF90191838083000080913E
:101AE000120290911302009759F054F08091120263
:101AF000909113020197909313028093120206C0F3
:101B000089E090E0909313028093120281E090E0CC
:101B1000909319028093180216C180911802909137
:101B20001902009709F40FC19E012F573F4F80E023
:101B300090E0A0EFB1E4F90180839183A283B383A5
:101B40008E010B571F4FCE018F579F4F20E030E083
:101B50004AE755E4DC016D917D918D919C910E9445
:101B6000CE1BC550DE4F688379838A839B83CB5F0E
:101B7000D140C550DE4F88819981AA81BB81CB5F5E
:101B8000D140F80180839183A283B383CE018B5728
:101B90009F4F20E030E040E85FE3DC016D917D91F4
:101BA0008D919C910E94481B88234CF4CE0187574D
:101BB0009F4F21E030E0FC0131832083A5C0CE019E
:101BC0008B579F4F20E03FEF4FE757E4DC016D91CB
:101BD0007D918D919C910E94C91B882309F00CF482
:101BE00075C0CE018F579F4F20E030E040E251E4B6
:101BF000FC0160817181828193810E94CE1BC15062
:101C0000DE4F688379838A839B83CF5FD140C15045
:101C1000DE4F88819981AA81BB81CF5FD140C15CB1
:101C2000DE4F88839983AA83BB83CF53D1408E0133
:101C300007571F4FC15CDE4F688179818A819B8184
:101C4000CF53D1400E944D1BCD5FDD4F6883798318
:101C50008A839B83C350D240CD5FDD4FE881F981F9
:101C6000C350D240D8011196FC93EE9326C0CE010A
:101C700085579F4F20E931E0DC012D933C93CE0145
:101C800085579F4FFC01808191810197F1F79E015B
:101C900025573F4FD9018D939C930000CE01875764
:101CA0009F4F9E0127573F4FF901208131812150DD
:101CB0003109DC0111963C932E93CE0187579F4F3B
:101CC000FC0180819181009791F639C08E01075700
:101CD0001F4FCE018B579F4FDC016D917D918D91F0
:101CE0009C910E944D1BC95FDD4F688379838A8375
:101CF0009B83C750D240C95FDD4F88819981C7500F
:101D0000D240F80191838083CE0183579F4F9E017B
:101D100027573F4FD9012D913C91FC0131832083FE
:101D2000CE0183579F4FDC018D919C910197F1F774
:101D30009E0123573F4FF901918380830000109249
:101D40001902109218028FE290E0DC018C91882F2A
:101D500090E088709927009709F030C180911C02AB
:101D600090911D02009709F03FC29E0121573F4FFD
:101D700080E090E0A0EFB1E4F90180839183A28339
:101D8000B3838E010D561F4FCE0181579F4F20E028
:101D900030E04AE755E4DC016D917D918D919C9195
:101DA0000E94CE1BC55FDD4F688379838A839B8346
:101DB000CB50D240C55FDD4F88819981AA81BB811C
:101DC000CB50D240F80180839183A283B383CE01AC
:101DD0008D569F4F20E030E040E85FE3DC016D91DD
:101DE0007D918D919C910E94481B88234CF4CE01DB
:101DF00089569F4F21E030E0FC0131832083A5C04C
:101E0000CE018D569F4F20E03FEF4FE757E4DC01B6
:101E10006D917D918D919C910E94C91B882309F041
:101E20000CF475C0CE0181579F4F20E030E040E2B6
:101E300051E4FC0160817181828193810E94CE1BFB
:101E4000C15FDD4F688379838A839B83CF50D24003
:101E5000C15FDD4F88819981AA81BB81CF50D2407B
:101E6000CD5BDE4F88839983AA83BB83C354D14063
:101E70008E0109561F4FCD5BDE4F688179818A81C3
:101E80009B81C354D1400E944D1BCD5EDD4F6883C2
:101E900079838A839B83C351D240CD5EDD4FE88135
:101EA000F981C351D240D8011196FC93EE9326C01C
:101EB000CE0187569F4F20E931E0DC012D933C9302
:101EC000CE0187569F4FFC01808191810197F1F7E8
:101ED0009E0127563F4FD9018D939C930000CE0160
:101EE00089569F4F9E0129563F4FF901208131812C
:101EF00021503109DC0111963C932E93CE01895675
:101F00009F4FFC0180819181009791F63AC08E012C
:101F100009561F4FCE018D569F4FDC016D917D916B
:101F20008D919C910E944D1BC95EDD4F6883798322
:101F30008A839B83C751D240C95EDD4F88819981D6
:101F4000C751D240F80191838083CE0185569F4FBF
:101F50009E0129563F4FD9012D913C91FC013183BF
:101F60002083CE0185569F4FDC018D919C91119766
:101F70000197F1F79E0125563F4FF9019183808328
:101F8000000080911202909113028830910509F0AF
:101F900054F48091120290911302019690931302CF
:101FA0008093120204C0109213021092120281E078
:101FB00090E090931D0280931C0216C180911C0238
:101FC00090911D02009709F40FC19E0123563F4FC7
:101FD00080E090E0A0EFB1E4F90180839183A283D7
:101FE000B3838E010F551F4FCE0183569F4F20E0C4
:101FF00030E04AE755E4DC016D917D918D919C9133
:102000000E94CE1BC55EDD4F688379838A839B83E4
:10201000CB51D240C55EDD4F88819981AA81BB81B9
:10202000CB51D240F80180839183A283B383CE0148
:102030008F559F4F20E030E040E85FE3DC016D9179
:102040007D918D919C910E94481B88234CF4CE0178
:102050008B559F4F21E030E0FC0131832083A5C0E8
:10206000CE018F559F4F20E03FEF4FE757E4DC0153
:102070006D917D918D919C910E94C91B882309F0DF
:102080000CF475C0CE0183569F4F20E030E040E253
:1020900051E4FC0160817181828193810E94CE1B99
:1020A000C15EDD4F688379838A839B83CF51D240A1
:1020B000C15EDD4F88819981AA81BB81CF51D24019
:1020C000C95BDE4F88839983AA83BB83C754D14001
:1020D0008E010B551F4FC95BDE4F688179818A8164
:1020E0009B81C754D1400E944D1BCD5DDD4F68835D
:1020F00079838A839B83C352D240CD5DDD4FE881D3
:10210000F981C352D240D8011196FC93EE9326C0B8
:10211000CE0189559F4F20E931E0DC012D933C939E
:10212000CE0189559F4FFC01808191810197F1F784
:102130009E0129553F4FD9018D939C930000CE01FC
:102140008B559F4F9E012B553F4FF90120813181C7
:1021500021503109DC0111963C932E93CE018B5511
:102160009F4FFC0180819181009791F639C08E01CB
:102170000B551F4FCE018F559F4FDC016D917D9107
:102180008D919C910E944D1BC95DDD4F68837983C1
:102190008A839B83C752D240C95DDD4F8881998174
:1021A000C752D240F80191838083CE0187559F4F5B
:1021B0009E012B553F4FD9012D913C91FC0131835C
:1021C0002083CE0187559F4FDC018D919C91019713
:1021D000F1F79E0127553F4FF9019183808300005D
:1021E00010921D0210921C028FE290E0DC018C9193
:1021F000882F90E084709927009709F033C180916F
:102200001A0290911B02009709F042C29E012555C7
:102210003F4F80E090E0A0EFB1E4F901808391832B
:10222000A283B3838E0101551F4FCE0185559F4F69
:1022300020E030E04AE755E4DC016D917D918D911D
:102240009C910E94CE1BC55DDD4F688379838A8394
:102250009B83CB52D240C55DDD4F88819981AA8195
:10226000BB81CB52D240F80180839183A283B38398
:10227000CE0181559F4F20E030E040E85FE3DC0174
:102280006D917D918D919C910E94481B88234CF407
:10229000CE018D549F4F21E030E0FC01318320833B
:1022A000A5C0CE0181559F4F20E03FEF4FE757E497
:1022B000DC016D917D918D919C910E94C91B8823B9
:1022C00009F00CF475C0CE0185559F4F20E030E039
:1022D00040E251E4FC0160817181828193810E941E
:1022E000CE1BC15DDD4F688379838A839B83CF5288
:1022F000D240C15DDD4F88819981AA81BB81CF52D7
:10230000D240C55BDE4F88839983AA83BB83CB54BD
:10231000D1408E010D541F4FC55BDE4F688179811E
:102320008A819B81CB54D1400E944D1BCD5CDD4FF7
:10233000688379838A839B83C353D240CD5CDD4F0E
:10234000E881F981C353D240D8011196FC93EE93F2
:1023500026C0CE018B549F4F20E931E0DC012D9344
:102360003C93CE018B549F4FFC018081918101975A
:10237000F1F79E012B543F4FD9018D939C930000A0
:10238000CE018D549F4F9E012D543F4FF901208166
:10239000318121503109DC0111963C932E93CE01FD
:1023A0008D549F4FFC0180819181009791F63AC036
:1023B0008E010D541F4FCE0181559F4FDC016D9151
:1023C0007D918D919C910E944D1BC95CDD4F68836E
:1023D00079838A839B83C753D240C95CDD4F888150
:1023E0009981C753D240F80191838083CE018954EB
:1023F0009F4F9E012D543F4FD9012D913C91FC01DF
:1024000031832083CE0189549F4FDC018D919C91B3
:1024100011970197F1F79E0129543F4FF9019183DC
:102420008083000080911202909113029093010228
:102430008093000280911E0290911F02019690935A
:102440001F0280931E0280910202909103029093DA
:1024500013028093120281E090E090931B0280931C
:102460001A0216C180911A0290911B02009709F47A
:102470000FC19E0127543F4F80E090E0A0EFB1E4F0
:10248000F90180839183A283B3838E0103541F4F8C
:10249000CE0187549F4F20E030E04AE755E4DC014D
:1024A0006D917D918D919C910E94CE1BC55CDD4FFD
:1024B000688379838A839B83CB53D240C55CDD4F8D
:1024C00088819981AA81BB81CB53D240F801808356
:1024D0009183A283B383CE0183549F4F20E030E0E9
:1024E00040E85FE3DC016D917D918D919C910E94AC
:1024F000481B88234CF4CE018F539F4F21E030E0DE
:10250000FC0131832083A5C0CE0183549F4F20E07E
:102510003FEF4FE757E4DC016D917D918D919C91E8
:102520000E94C91B882309F00CF475C0CE018754A2
:102530009F4F20E030E040E251E4FC016081718176
:10254000828193810E94CE1BC15CDD4F68837983B9
:102550008A839B83CF53D240C15CDD4F88819981B0
:10256000AA81BB81CF53D240C15BDE4F8883998360
:10257000AA83BB83CF54D1408E010F531F4FC15B41
:10258000DE4F688179818A819B81CF54D1400E943E
:102590004D1BCD5BDD4F688379838A839B83C35456
:1025A000D240CD5BDD4FE881F981C354D240D801E0
:1025B0001196FC93EE9326C0CE018D539F4F20E9D8
:1025C00031E0DC012D933C93CE018D539F4FFC01F4
:1025D000808191810197F1F79E012D533F4FD901E1
:1025E0008D939C930000CE018F539F4F9E012F53DC
:1025F0003F4FF9012081318121503109DC011196D1
:102600003C932E93CE018F539F4FFC01808191818B
:10261000009791F639C08E010F531F4FCE0183549E
:102620009F4FDC016D917D918D919C910E944D1B7E
:10263000C95BDD4F688379838A839B83C754D2400B
:10264000C95BDD4F88819981C754D240F8019183DD
:102650008083CE018B539F4F9E012F533F4FD90153
:102660002D913C91FC0131832083CE018B539F4FF0
:10267000DC018D919C910197F1F79E012B533F4F07
:10268000F90191838083000010921B0210921A02BC
:102690000E9407038EC782E290E02FEDDC012C93AD
:1026A0008AE00E94B1019E0129533F4F80E090E8EB
:1026B000ABEBB4E4F90180839183A283B3838E01F1
:1026C00005531F4FCE0189539F4F20E030E04AE76A
:1026D00055E4DC016D917D918D919C910E94CE1B02
:1026E000C55BDD4F688379838A839B83CB54D2405B
:1026F000C55BDD4F88819981AA81BB81CB54D240D3
:10270000F80180839183A283B383CE0185539F4FC9
:1027100020E030E040E85FE3DC016D917D918D9138
:102720009C910E94481B88234CF4CE0181539F4FFB
:1027300021E030E0FC0131832083A5C0CE01855328
:102740009F4F20E03FEF4FE757E4DC016D917D9113
:102750008D919C910E94C91B882309F00CF475C0CF
:10276000CE0189539F4F20E030E040E251E4FC016C
:1027700060817181828193810E94CE1BC15BDD4F9C
:10278000688379838A839B83CF54D240C15BDD4FBA
:1027900088819981AA81BB81CF54D240CD5ADE4F26
:1027A00088839983AA83BB83C355D1408E0101538B
:1027B0001F4FCD5ADE4F688179818A819B81C35535
:1027C000D1400E944D1BCD5ADD4F688379838A83A7
:1027D0009B83C355D240CD5ADD4FE881F981C35563
:1027E000D240D8011196FC93EE9326C0CE018F52B1
:1027F0009F4F20E931E0DC012D933C93CE018F52B5
:102800009F4FFC01808191810197F1F79E012F522A
:102810003F4FD9018D939C930000CE0181539F4F70
:102820009E0121533F4FF90120813181215031090F
:10283000DC0111963C932E93CE0181539F4FFC01F6
:1028400080819181009791F639C08E0101531F4F0D
:10285000CE0185539F4FDC016D917D918D919C91AF
:102860000E944D1BC95ADD4F688379838A839B83FD
:10287000C755D240C95ADD4F88819981C755D2408A
:10288000F80191838083CE018D529F4F9E01215389
:102890003F4FD9012D913C91FC0131832083CE0122
:1028A0008D529F4FDC018D919C910197F1F79E0114
:1028B0002D523F4FF90191838083000080E00E94F8
:1028C000B10182E290E020E2DC012C9382E290E010
:1028D0002FEEFC01208386EF0E94B10186E290E09A
:1028E000DC018C91882F90E084709927009709F47F
:1028F0005FC680E00E94B1011092060210920502AC
:1029000082E290E020E1FC01208380911E02909100
:102910001F02019690931F0280931E0249C689E50B
:102920008093040282E290E02BEFDC012C938091F3
:102930000002909101028130910509F024F484EFA6
:102940000E94B10103C087EE0E94B10186E290E0CF
:10295000FC018081882F90E080729927009709F010
:1029600023C18091180290911902009709F033C297
:102970009E012B523F4F80E090E0A0EFB1E4F901BF
:1029800080839183A283B3838E0107521F4FCE01B0
:102990008B529F4F20E030E04AE755E4DC016D9117
:1029A0007D918D919C910E94CE1BC55ADD4F68830D
:1029B00079838A839B83CB55D240C55ADD4F88816A
:1029C0009981AA81BB81CB55D240F8018083918344
:1029D000A283B383CE0187529F4F20E030E040E8CE
:1029E0005FE3DC016D917D918D919C910E94481B6C
:1029F00088234CF4CE0183529F4F21E030E0FC014C
:102A000031832083A5C0CE0187529F4F20E03FEF46
:102A10004FE757E4DC016D917D918D919C910E946F
:102A2000C91B882309F00CF475C0CE018B529F4F4F
:102A300020E030E040E251E4FC016081718182815C
:102A400093810E94CE1BC15ADD4F688379838A83AC
:102A50009B83CF55D240C15ADD4F88819981AA818D
:102A6000BB81CF55D240C95ADE4F88839983AA8350
:102A7000BB83C755D1408E0103521F4FC95ADE4F49
:102A8000688179818A819B81C755D1400E944D1B05
:102A9000CD59DD4F688379838A839B83C356D240A7
:102AA000CD59DD4FE881F981C356D240D801119646
:102AB000FC93EE9326C0CE0181529F4F20E931E076
:102AC000DC012D933C93CE0181529F4FFC0180810C
:102AD00091810197F1F79E0121523F4FD9018D93CA
:102AE0009C930000CE0183529F4F9E0123523F4F83
:102AF000F9012081318121503109DC0111963C938B
:102B00002E93CE0183529F4FFC01808191810097CB
:102B100091F63AC08E0103521F4FCE0187529F4F4C
:102B2000DC016D917D918D919C910E944D1BC95945
:102B3000DD4F688379838A839B83C756D240C95906
:102B4000DD4F88819981C756D240F80191838083F7
:102B5000CE018F519F4F9E0123523F4FD9012D919E
:102B60003C91FC0131832083CE018F519F4FDC01CA
:102B70008D919C9111970197F1F79E012F513F4F35
:102B8000F9019183808300008091000290910102FD
:102B90000197909301028093000281E090E090936E
:102BA00019028093180217C180911802909119029E
:102BB000009709F410C19E012D513F4F80E090E035
:102BC000A0EFB1E4F90180839183A283B3838E01E6
:102BD00009511F4FCE018D519F4F20E030E04AE751
:102BE00055E4DC016D917D918D919C910E94CE1BED
:102BF000C559DD4F688379838A839B83CB56D24046
:102C0000C559DD4F88819981AA81BB81CB56D240BD
:102C1000F80180839183A283B383CE0189519F4FB2
:102C200020E030E040E85FE3DC016D917D918D9123
:102C30009C910E94481B88234CF4CE0185519F4FE4
:102C400021E030E0FC0131832083A5C0CE01895111
:102C50009F4F20E03FEF4FE757E4DC016D917D91FE
:102C60008D919C910E94C91B882309F00CF475C0BA
:102C7000CE018D519F4F20E030E040E251E4FC0155
:102C800060817181828193810E94CE1BC159DD4F89
:102C9000688379838A839B83CF56D240C159DD4FA5
:102CA00088819981AA81BB81CF56D240C55ADE4F17
:102CB00088839983AA83BB83CB55D1408E0105516C
:102CC0001F4FC55ADE4F688179818A819B81CB5520
:102CD000D1400E944D1BCD58DD4F688379838A8394
:102CE0009B83C357D240CD58DD4FE881F981C3574C
:102CF000D240D8011196FC93EE9326C0CE018351A9
:102D00009F4F20E931E0DC012D933C93CE018351AC
:102D10009F4FFC01808191810197F1F79E01235122
:102D20003F4FD9018D939C930000CE0185519F4F59
:102D30009E0125513F4FF9012081318121503109F8
:102D4000DC0111963C932E93CE0185519F4FFC01DF
:102D500080819181009791F63AC08E0105511F4FF5
:102D6000CE0189519F4FDC016D917D918D919C9198
:102D70000E944D1BC958DD4F688379838A839B83EA
:102D8000C757D240C958DD4F88819981C757D24073
:102D9000F80191838083CE0181519F4F9E0125517F
:102DA0003F4FD9012D913C91FC0131832083CE010D
:102DB00081519F4FDC018D919C9111970197F1F703
:102DC0009E0121513F4FF9019183808300001092B1
:102DD000190210921802809100029091010200974E
:102DE00089F480911E0290911F02019690931F0218
:102DF00080931E0282E290E020E4DC012C9380E0CC
:102E00000E94B101809100029091010290931302FF
:102E1000809312020E940703CCC388E580930402CA
:102E200082E290E02EEFFC012083809102029091DB
:102E300003028130910509F024F48EE10E94B10172
:102E400003C08BE40E94B10186E290E0DC018C912A
:102E5000882F90E088709927009709F023C180910E
:102E6000180290911902009709F033C29E012F5069
:102E70003F4F80E090E0A0EFB1E4F90180839183BF
:102E8000A283B3838E010B501F4FCE018F509F4FF3
:102E900020E030E04AE755E4DC016D917D918D91B1
:102EA0009C910E94CE1BC558DD4F688379838A832D
:102EB0009B83CB57D240C558DD4F88819981AA8129
:102EC000BB81CB57D240F80180839183A283B38327
:102ED000CE018B509F4F20E030E040E85FE3DC0103
:102EE0006D917D918D919C910E94481B88234CF49B
:102EF000CE0187509F4F21E030E0FC0131832083D9
:102F0000A5C0CE018B509F4F20E03FEF4FE757E425
:102F1000DC016D917D918D919C910E94C91B88234C
:102F200009F00CF475C0CE018F509F4F20E030E0C7
:102F300040E251E4FC0160817181828193810E94B1
:102F4000CE1BC158DD4F688379838A839B83CF571B
:102F5000D240C158DD4F88819981AA81BB81CF576A
:102F6000D240C15ADE4F88839983AA83BB83CF5551
:102F7000D1408E0107501F4FC15ADE4F68817981C1
:102F80008A819B81CF55D1400E944D1BCD57DD4F8B
:102F9000688379838A839B83C358D240CD57DD4FA2
:102FA000E881F981C358D240D8011196FC93EE9381
:102FB00026C0CE0185509F4F20E931E0DC012D93E2
:102FC0003C93CE0185509F4FFC01808191810197F8
:102FD000F1F79E0125503F4FD9018D939C9300003E
:102FE000CE0187509F4F9E0127503F4FF90120810E
:102FF000318121503109DC0111963C932E93CE0191
:1030000087509F4FFC0180819181009791F63AC0D3
:103010008E0107501F4FCE018B509F4FDC016D91E9
:103020007D918D919C910E944D1BC957DD4F688306
:1030300079838A839B83C758D240C957DD4F8881E3
:103040009981C758D240F80191838083CE01835083
:103050009F4F9E0127503F4FD9012D913C91FC017C
:1030600031832083CE0183509F4FDC018D919C9151
:1030700011970197F1F79E0123503F4FF90191837A
:103080008083000080910202909103020197909347
:1030900003028093020281E090E0909319028093F2
:1030A000180217C18091180290911902009709F433
:1030B00010C19E0121503F4F80E090E0A0EFB1E4AD
:1030C000F90180839183A283B3838E010D5F1E4F2C
:1030D000CE0181509F4F20E030E04AE755E4DC010B
:1030E0006D917D918D919C910E94CE1BC557DD4FB6
:1030F000688379838A839B83CB58D240C557DD4F41
:1031000088819981AA81BB81CB58D240F801808304
:103110009183A283B383CE018D5F9E4F20E030E088
:1031200040E85FE3DC016D917D918D919C910E945F
:10313000481B88234CF4CE01895F9E4F21E030E08C
:10314000FC0131832083A5C0CE018D5F9E4F20E01E
:103150003FEF4FE757E4DC016D917D918D919C919C
:103160000E94C91B882309F00CF475C0CE01815060
:103170009F4F20E030E040E251E4FC01608171812A
:10318000828193810E94CE1BC157DD4F6883798372
:103190008A839B83CF58D240C157DD4F8881998164
:1031A000AA81BB81CF58D240CD59DE4F8883998305
:1031B000AA83BB83C356D1408E01095F1E4FCD59F0
:1031C000DE4F688179818A819B81C356D1400E94FC
:1031D0004D1BCD56DD4F688379838A839B83C3590A
:1031E000D240CD56DD4FE881F981C359D240D80194
:1031F0001196FC93EE9326C0CE01875F9E4F20E987
:1032000031E0DC012D933C93CE01875F9E4FFC01A2
:10321000808191810197F1F79E01275F3E4FD9018F
:103220008D939C930000CE01895F9E4F9E01295F84
:103230003E4FF9012081318121503109DC01119685
:103240003C932E93CE01895F9E4FFC01808191813A
:10325000009791F63AC08E01095F1E4FCE018D5F37
:103260009E4FDC016D917D918D919C910E944D1B33
:10327000C956DD4F688379838A839B83C759D240BF
:10328000C956DD4F88819981C759D240F801918391
:103290008083CE01855F9E4F9E01295F3E4FD901FD
:1032A0002D913C91FC0131832083CE01855F9E4F9F
:1032B000DC018D919C9111970197F1F79E01255F9B
:1032C0003E4FF90191838083000010921902109201
:1032D00018028091020290910302009789F480E025
:1032E0000E94B10182E290E021E0DC012C93809108
:1032F0001E0290911F02019690931F0280931E025E
:103300008091020290910302909313028093120223
:103310000E9407034EC18AE00E94B1019E01235F13
:103320003E4F80E090E8ABEBB4E4F90180839183F9
:10333000A283B3838E010F5E1E4FCE01835F9E4F2B
:1033400020E030E04AE755E4DC016D917D918D91FC
:103350009C910E94CE1BC556DD4F688379838A837A
:103360009B83CB59D240C556DD4F88819981AA8174
:10337000BB81CB59D240F80180839183A283B38370
:10338000CE018F5E9E4F20E030E040E85FE3DC013D
:103390006D917D918D919C910E94481B88234CF4E6
:1033A000CE018B5E9E4F21E030E0FC013183208313
:1033B000A5C0CE018F5E9E4F20E03FEF4FE757E460
:1033C000DC016D917D918D919C910E94C91B882398
:1033D00009F00CF475C0CE01835F9E4F20E030E011
:1033E00040E251E4FC0160817181828193810E94FD
:1033F000CE1BC156DD4F688379838A839B83CF5967
:10340000D240C156DD4F88819981AA81BB81CF59B5
:10341000D240C959DE4F88839983AA83BB83C7569C
:10342000D1408E010B5E1E4FC959DE4F68817981F4
:103430008A819B81C756D1400E944D1BCD55DD4FDF
:10344000688379838A839B83C35AD240CD55DD4FED
:10345000E881F981C35AD240D8011196FC93EE93CA
:1034600026C0CE01895E9E4F20E931E0DC012D931C
:103470003C93CE01895E9E4FFC0180819181019732
:10348000F1F79E01295E3E4FD9018D939C93000078
:10349000CE018B5E9E4F9E012B5E3E4FF901208137
:1034A000318121503109DC0111963C932E93CE01DC
:1034B0008B5E9E4FFC0180819181009791F639C00F
:1034C0008E010B5E1E4FCE018F5E9E4FDC016D9113
:1034D0007D918D919C910E944D1BC955DD4F688354
:1034E00079838A839B83C75AD240C955DD4F88812F
:1034F0009981C75AD240F80191838083CE01875EBB
:103500009E4F9E012B5E3E4FD9012D913C91FC01B7
:1035100031832083CE01875E9E4FDC018D919C918B
:103520000197F1F79E01275E3E4FF9019183808359
:10353000000080E00E94B10182E290E02FEDDC010A
:103540002C9382E290E02FEEFC01208386EF0E9414
:10355000B10181E090E09A8389831CC086E290E00B
:10356000DC018C91882F90E084709927009791F06E
:1035700080E00E94B1011A82198282E290E020E18B
:10358000FC01208380911E0290911F0290931F02E4
:1035900080931E0289819A8181309105F9F209C0D8
:1035A00010921F0210921E0204C000000C94960399
:1035B00000000C9496031F920F920FB60F921124E5
:1035C0002F933F935F936F937F938F939F93AF93CB
:1035D000BF93CF93DF93CDB7DEB780911202909166
:1035E00013022AE030E0B9010E94091B8093140203
:1035F0000000DF91CF91BF91AF919F918F917F910B
:103600006F915F913F912F910F900FBE0F901F9080
:10361000189597FB072E16F4009407D077FD09D074
:103620000E94341B07FC05D03EF4909581959F4F76
:103630000895709561957F4F0895EE0FFF1F881FC5
:103640008BBF0790F691E02D1994A29FB001B39F14
:10365000C001A39F700D811D1124911DB29F700D9B
:10366000811D1124911D0895AA1BBB1B51E107C0A8
:10367000AA1FBB1FA617B70710F0A61BB70B881F02
:10368000991F5A95A9F780959095BC01CD01089591
:103690000E947C1B08F481E008950E94A81B88F01A
:1036A0009F5798F0B92F9927B751B0F0E1F0660F06
:1036B000771F881F991F1AF0BA95C9F714C0B13047
:1036C00091F00E94C21BB1E008950C94C21B672FB9
:1036D000782F8827B85F39F0B93FCCF38695779576
:1036E0006795B395D9F73EF490958095709561955F
:1036F0007F4F8F4F9F4F0895990F0008550FAA0BCA
:10370000E0E8FEEF16161706E807F907C0F01216F4
:103710001306E407F50798F0621B730B840B950BF7
:1037200039F40A2661F0232B242B252B21F408954C
:103730000A2609F4A140A6958FEF811D811D0895E9
:1037400057FD9058440F551F59F05F3F71F0479552
:10375000880F97FB991F61F09F3F79F08795089537
:10376000121613061406551FF2CF4695F1DF08C056
:10377000161617061806991FF1CF86957105610573
:1037800008940895E894BB2766277727CB0197F91B
:1037900008950E947C1B08F48FEF08950E94E11B9E
:1037A0000C94521C0E94441C38F00E944B1C20F0C8
:1037B000952311F00C943B1C0C94411C11240C9487
:1037C000C31B0E94A01B70F3959FC1F3950F50E09F
:1037D000551F629FF001729FBB27F00DB11D639FC3
:1037E000AA27F00DB11DAA1F649F6627B00DA11D69
:1037F000661F829F2227B00DA11D621F739FB00D0F
:10380000A11D621F839FA00D611D221F749F33277E
:10381000A00D611D231F849F600D211D822F762F17
:103820006A2F11249F5750409AF0F1F088234AF0F4
:10383000EE0FFF1FBB1F661F771F881F9150504060
:10384000A9F79E3F510580F00C943B1C0C94C31BC0
:103850005F3FE4F3983ED4F3869577956795B795E7
:10386000F795E7959F5FC1F7FE2B880F911D969501
:10387000879597F9089597F99F6780E870E060E071
:1038800008959FEF80EC089500240A9416161706F9
:1038900018060906089500240A9412161306140641
:1038A00005060895092E0394000C11F4882352F0A4
:1038B000BB0F40F4BF2B11F460FF04C06F5F7F4F5C
:1038C0008F4F9F4F0895F894FFCFAD030A064E0C1B
:0838D0004B138F140D178B1927
:1038D800FF00FF00650100039F250D9949411F0165
:0238E8001900C5
:00000001FF
