:100000000C9472000C9493000C9493000C94930045
:100010000C9493000C9493000C9493000C94930014
:100020000C9493000C9493000C9493000C94930004
:100030000C9493000C9493000C9493000C949300F4
:100040000C9493000C9493000C9493000C949300E4
:100050000C9493000C9404010C9432010C949500C0
:100060000C9493000C9493000C9493000C949300C4
:100070000C9493000C9493000C9493000C949300B4
:100080000C9493000C9493000C9493000C949300A4
:100090000C9493000C9493000C9493000C94930094
:1000A0000C9493000C9493000C94331E0C949300C6
:1000B0000C9493000C9493000C9493000C94930074
:1000C0000C9493000C9493000C9493000C94930064
:1000D0000C9493000C9493000C9493000C94930054
:1000E0000C94930011241FBECFEFD1E2DEBFCDBF31
:1000F00000E00CBF12E0A0E0B2E0ECE4FFE300E0BF
:100100000BBF02C007900D92A031B107D9F722E0D2
:10011000A0E1B2E001C01D92A032B207E1F70E9457
:100120001D030C94A41F0C9400001F920F920FB695
:100130000F9211240BB60F922F938F939F93EF93EF
:10014000FF93CF93DF93CDB7DEB787E490E0FC0158
:1001500080818823C9F488E490E0FC0180818823B1
:1001600099F482E091E0FC01208182E091E02F7B14
:10017000FC01208381E390E0FC01208181E390E099
:100180002F7DFC01208331C087E490E0FC01808159
:10019000882399F081E390E0FC01208181E390E0E5
:1001A0002F7DFC01208382E091E0FC01208182E030
:1001B00091E02064FC01208318C088E490E0FC01F9
:1001C0008081882391F082E091E0FC01208182E02F
:1001D00091E02F7BFC01208381E390E0FC012081F2
:1001E00081E390E02062FC0120830000DF91CF9149
:1001F000FF91EF919F918F912F910F900BBE0F90D8
:100200000FBE0F901F9018951F920F920FB60F926E
:1002100011240BB60F922F938F939F93EF93FF931D
:10022000CF93DF93CDB7DEB787E490E0FC01808108
:100230008F3F49F082E091E0FC01208182E091E073
:100240002F7BFC0120830000DF91CF91FF91EF9184
:100250009F918F912F910F900BBE0F900FBE0F901B
:100260001F9018951F920F920FB60F9211240BB684
:100270000F922F938F939F93EF93FF93CF93DF93DF
:10028000CDB7DEB788E490E0FC0180818F3F49F074
:1002900081E390E0FC01208181E390E02F7DFC016F
:1002A00020830000DF91CF91FF91EF919F918F917B
:1002B0002F910F900BBE0F900FBE0F901F901895AF
:1002C000CF93DF93CDB7DEB781E091E0FC012081D1
:1002D00081E091E02064FC01208380E390E0FC0158
:1002E000208180E390E02062FC01208382E091E0A5
:1002F000FC01208182E091E02F7BFC01208381E3DF
:1003000090E0FC01208181E390E02F7DFC012083BF
:1003100084E490E0FC01108285E490E023E0FC019D
:10032000208387E490E0FC01108288E490E0FC01E7
:1003300010828EE690E027E0FC0120837894000094
:10034000DF91CF910895CF93DF930F92CDB7DEB7B2
:10035000898389818C39E4F18981843609F0C4F577
:1003600089818823DCF088E490E0FC011082898197
:10037000082E000C990B2FEF289FA001299F500DEC
:10038000112424E630E0CA01B9010E94611ECB01AC
:100390009C0187E490E0FC0120831AC087E490E090
:1003A000FC0110828981082E000C990B2FEF289FE9
:1003B000A001299F500D11242CE93FEFCA01B9017A
:1003C0000E94611ECB019C0188E490E0FC01208327
:1003D00000000F90DF91CF910895CF93DF93CDB7B9
:1003E000DEB70E94600184E290E028EFFC012083E8
:1003F00085E290E0FC018081282F286F85E290E063
:10040000FC01208380E390E0FC01208180E390E008
:10041000277FFC01208381E091E0FC01208181E0C5
:1004200091E02063FC01208383E390E0FC012081C4
:1004300083E390E02062FC01208382E091E0FC01F4
:10044000208182E091E02F7EFC01208384E390E014
:10045000FC01208184E390E02F7DFC01208380EA71
:1004600090E0FC01108281EA90E0FC01108284EAB5
:1004700090E0FC011182108288EA90E02CED35E0DA
:10048000FC013183208381EA90E0FC01208181EA34
:1004900090E02860FC01208381EA90E0FC0120814B
:1004A00081EA90E02560FC01208382E790E0FC0176
:1004B000208182E790E02260FC0120837894000094
:1004C000DF91CF910895CF93DF9300D00F92CDB7F6
:1004D000DEB78C838C8189831A8232C089818170D6
:1004E0008B838B81882359F054F082E091E0FC01EA
:1004F000208182E091E02062FC01208309C082E03B
:1005000091E0FC01208182E091E02F7DFC012083BD
:1005100082E091E0FC01208182E091E02061FC0119
:10052000208382E091E0FC01208182E091E02F7E37
:10053000FC0120838981859589838A818F5F8A83E5
:100540008A81873059F254F2000000000F900F901A
:100550000F900F90DF91CF910895CF93DF930F927B
:10056000CDB7DEB789838981282F880F330B80E8C8
:1005700090E002C0959587952A95E2F70E94630264
:1005800000000F90DF91CF910895CF93DF930F92EA
:100590000F92CDB7DEB789836A8389810E94630297
:1005A0008A810E94AD0284E390E0FC01208184E313
:1005B00090E02062FC01208384E390E0FC01208134
:1005C00084E390E02F7DFC01208300000F900F90CA
:1005D000DF91CF910895CF93DF93CDB7DEB78091B0
:1005E0000402082E000C990B8835910521F08935FD
:1005F000910551F012C060E08FEE0E94C50261E0EB
:100600008FEE0E94C50209C060E083EF0E94C50220
:1006100061E08FEF0E94C502000080911202082E57
:10062000000C990B8B5F9D4FFC01808163E00E9461
:10063000C5020000DF91CF9108950F931F93CF93D0
:10064000DF93CDB7DEB7C053D3400FB6F894DEBF0B
:100650000FBECDBF0E94ED0180911C0290911D0242
:100660008430910511F40C942C1E8430910509F00E
:100670009CF78330910511F40C9418178330910581
:1006800009F054F78230910511F40C94FC0F82307C
:10069000910509F00CF7009729F08130910509F4D4
:1006A000A1C5DACF88E5809304028FE290E0DC01F7
:1006B0008C91882F90E082709927009709F0DDC017
:1006C0008091160290911702009709F099C180E07D
:1006D00090E0A0EFB1E489839A83AB83BC8320E0F0
:1006E00030E04AE755E469817A818B819C810E94E0
:1006F0000F1FCF54DE4F688379838A839B83C15B4E
:10070000D140CF54DE4F288139814A815B81C15B62
:10071000D1402D833E834F83588720E030E040E86E
:100720005FE36D817E818F8198850E94891E882379
:100730002CF481E090E09A87898776C020E03FEF33
:100740004FE757E46D817E818F8198850E940A1F53
:10075000882309F00CF452C020E030E040E251E47C
:1007600069817A818B819C810E940F1FCB54DE4F5F
:10077000688379838A839B83C55BD140CB54DE4FEA
:1007800088819981AA81BB81C55BD140CF5ADE4F58
:1007900088839983AA83BB83C155D140CF5ADE4F4A
:1007A000688179818A819B81C155D1400E948E1ECA
:1007B000C754DE4F688379838A839B83C95BD140AA
:1007C000C754DE4FA881B981C95BD140BA87A987D8
:1007D00010C080E991E09C878B878B859C85019771
:1007E000F1F79C878B87000089859A8501979A8706
:1007F000898789859A85009761F721C06D817E81FF
:100800008F8198850E948E1EC354DE4F6883798342
:100810008A839B83CD5BD140C354DE4FE881F9814D
:10082000CD5BD140FA87E98789859A859E878D8738
:100830008D859E850197F1F79E878D8700008091B9
:10084000100290911102009759F054F0809110021B
:10085000909111020197909311028093100206C0AB
:1008600089E090E0909311028093100281E090E083
:100870009093170280931602C3C080911602909144
:100880001702009709F4BCC080E090E0A0EFB1E44B
:100890008F87988BA98BBA8B20E030E04AE755E42C
:1008A0006F85788989899A890E940F1FCF53DE4FFF
:1008B000688379838A839B83C15CD140CF53DE4FA9
:1008C000288139814A815B81C15CD1402B8B3C8B73
:1008D0004D8B5E8B20E030E040E85FE36B897C89E4
:1008E0008D899E890E94891E88232CF481E090E0E6
:1008F000988F8F8B76C020E03FEF4FE757E46B89EE
:100900007C898D899E890E940A1F882309F00CF436
:1009100052C020E030E040E251E46F857889898957
:100920009A890E940F1FCB53DE4F688379838A8395
:100930009B83C55CD140CB53DE4F88819981AA81CE
:10094000BB81C55CD140CB5ADE4F88839983AA8393
:10095000BB83C555D140CB5ADE4F688179818A81EE
:100960009B81C555D1400E948E1EC753DE4F6883C0
:1009700079838A839B83C95CD140C753DE4FA881AA
:10098000B981C95CD140B88FAF8B10C080E991E0CC
:100990009A8F898F898D9A8D0197F1F79A8F898F18
:1009A00000008F89988D0197988F8F8B8F89988DF4
:1009B000009761F721C06B897C898D899E890E948F
:1009C0008E1EC353DE4F688379838A839B83CD5CFD
:1009D000D140C353DE4FE881F981CD5CD140F88F1F
:1009E000EF8B8F89988D9C8F8B8F8B8D9C8D019732
:1009F000F1F79C8F8B8F0000109217021092160255
:100A00008FE290E0DC018C91882F90E0887099272C
:100A1000009709F0DCC080911A0290911B020097A8
:100A200009F098C180E090E0A0EFB1E48D8F9E8F37
:100A3000AF8FB8A320E030E04AE755E46D8D7E8D9E
:100A40008F8D98A10E940F1FCF52DE4F688379834C
:100A50008A839B83C15DD140CF52DE4F288139818B
:100A60004A815B81C15DD14029A33AA34BA35CA31A
:100A700020E030E040E85FE369A17AA18BA19CA16E
:100A80000E94891E88232CF481E090E09EA38DA310
:100A900076C020E03FEF4FE757E469A17AA18BA130
:100AA0009CA10E940A1F882309F00CF452C020E088
:100AB00030E040E251E46D8D7E8D8F8D98A10E94D3
:100AC0000F1FCB52DE4F688379838A839B83C55D7A
:100AD000D140CB52DE4F88819981AA81BB81C55D0F
:100AE000D140C75ADE4F88839983AA83BB83C955F7
:100AF000D140C75ADE4F688179818A819B81C9556F
:100B0000D1400E948E1EC752DE4F688379838A834C
:100B10009B83C95DD140C752DE4FA881B981C95DB1
:100B2000D140BEA3ADA310C080E991E098A78FA3E8
:100B30008FA198A50197F1F798A78FA300008DA129
:100B40009EA101979EA38DA38DA19EA1009761F701
:100B500021C069A17AA18BA19CA10E948E1EC352C3
:100B6000DE4F688379838A839B83CD5DD140C352F6
:100B7000DE4FE881F981CD5DD140FEA3EDA38DA1CB
:100B80009EA19AA789A789A59AA50197F1F79AA787
:100B900089A7000080911002909111028830910580
:100BA00009F054F4809110029091110201969093F3
:100BB00011028093100204C01092110210921002D0
:100BC00081E090E090931B0280931A02C3C0809151
:100BD0001A0290911B02009709F4BCC080E090E0DB
:100BE000A0EFB1E48BA79CA7ADA7BEA720E030E0A3
:100BF0004AE755E46BA57CA58DA59EA50E940F1F15
:100C0000CF51DE4F688379838A839B83C15ED14055
:100C1000CF51DE4F288139814A815B81C15ED1404D
:100C20002FA738AB49AB5AAB20E030E040E85FE398
:100C30006FA578A989A99AA90E94891E88232CF4F6
:100C400081E090E09CAB8BAB76C020E03FEF4FE7BC
:100C500057E46FA578A989A99AA90E940A1F882339
:100C600009F00CF452C020E030E040E251E46BA502
:100C70007CA58DA59EA50E940F1FCB51DE4F6883DA
:100C800079838A839B83C55ED140CB51DE4F8881B7
:100C90009981AA81BB81C55ED140C35ADE4F88834A
:100CA0009983AA83BB83CD55D140C35ADE4F688157
:100CB00079818A819B81CD55D1400E948E1EC7517A
:100CC000DE4F688379838A839B83C95ED140C75195
:100CD000DE4FA881B981C95ED140BCABABAB10C0BF
:100CE00080E991E09EAB8DAB8DA99EA90197F1F7AC
:100CF0009EAB8DAB00008BA99CA901979CAB8BABE5
:100D00008BA99CA9009761F721C06FA578A989A933
:100D10009AA90E948E1EC351DE4F688379838A830D
:100D20009B83CD5ED140C351DE4FE881F981CD5E1A
:100D3000D140FCABEBAB8BA99CA998AF8FAB8FA933
:100D400098AD0197F1F798AF8FAB000010921B029E
:100D500010921A028FE290E0DC018C91882F90E0D3
:100D600084709927009709F021C180911802909111
:100D70001902009709F032C280E090E0A0EFB1E4E0
:100D800089AF9AAFABAFBCAF20E030E04AE755E4A3
:100D900069AD7AAD8BAD9CAD0E940F1FCF50DE4F79
:100DA000688379838A839B83C15FD140CE01CD96CE
:100DB000CF50DE4F288139814A815B81C15FD140AC
:100DC000DC012D933D934D935C93139720E030E02D
:100DD00040E85FE3CE01CD96FC01608171818281A4
:100DE00093810E94891E882354F4CE018F5B9F4F0C
:100DF00021E030E0DC0111963C932E939FC020E06F
:100E00003FEF4FE757E4CE01CD96FC016081718141
:100E1000828193810E940A1F882309F00CF471C01B
:100E200020E030E040E251E469AD7AAD8BAD9CAD9D
:100E30000E940F1FCB50DE4F688379838A839B8388
:100E4000C55FD140CB50DE4F288139814A815B811B
:100E5000C55FD140CF59DE4F288339834A835B83F6
:100E6000C156D1408E010F5B1F4FCF59DE4F6881B5
:100E700079818A819B81C156D1400E948E1EC750C4
:100E8000DE4F688379838A839B83C95FD140C750D3
:100E9000DE4FE881F981C95FD140D8011196FC93FA
:100EA000EE9326C0CE018D5B9F4F20E931E0DC013F
:100EB0002D933C93CE018D5B9F4FFC0180819181EE
:100EC0000197F1F79E012D5B3F4FD9018D939C93C4
:100ED0000000CE018F5B9F4F9E012F5B3F4FF901BA
:100EE0002081318121503109DC0111963C932E93F0
:100EF000CE018F5B9F4FFC0180819181009791F61D
:100F000039C08E010F5B1F4FCE01CD96DC016D9174
:100F10007D918D919C910E948E1EC350DE4F6883FF
:100F200079838A839B83CD5FD140C350DE4F288174
:100F30003981CD5FD140F80131832083CE018B5BB5
:100F40009F4F9E012F5B3F4FD9012D913C91FC019A
:100F500031832083CE018B5B9F4FDC018D919C916F
:100F600011970197F1F79E012B5B3F4FF901918398
:100F700080830000809110029091110290930302EF
:100F80008093020280911C0290911D020196909321
:100F90001D0280931C02109211021092100281E037
:100FA00090E0909319028093180218C18091180262
:100FB00090911902009709F411C19E01295B3F4FDE
:100FC00080E090E0A0EFB1E4F90180839183A283F7
:100FD000B3838E01055B1F4FCE01895B9F4F20E0DD
:100FE00030E04AE755E4DC016D917D918D919C9153
:100FF0000E940F1FCF5FDD4F688379838A839B83B5
:10100000C150D240CF5FDD4F288139814A815B8159
:10101000C150D240D8012D933D934D935C931397CB
:10102000CE01855B9F4F20E030E040E85FE3FC01AC
:1010300060817181828193810E94891E882354F48A
:10104000CE01815B9F4F21E030E0DC0111963C93A3
:101050002E93A5C0CE01855B9F4F20E03FEF4FE769
:1010600057E4FC0160817181828193810E940A1F93
:10107000882309F00CF475C0CE01895B9F4F20E0F6
:1010800030E040E251E4DC016D917D918D919C91C5
:101090000E940F1FCB5FDD4F688379838A839B8318
:1010A000C550D240CB5FDD4F288139814A815B81B9
:1010B000C550D240CB59DE4F288339834A835B83A6
:1010C000C556D1408E01015B1F4FCB59DE4F688161
:1010D00079818A819B81C556D1400E948E1EC75F4F
:1010E000DD4F688379838A839B83C950D240C75F71
:1010F000DD4FE881F981C950D240D8011196FC93A7
:10110000EE9326C0CE018F5A9F4F20E931E0DC01DB
:101110002D933C93CE018F5A9F4FFC01808191818A
:101120000197F1F79E012F5A3F4FD9018D939C9360
:101130000000CE01815B9F4F9E01215B3F4FF90173
:101140002081318121503109DC0111963C932E938D
:10115000CE01815B9F4FFC0180819181009791F6C8
:1011600039C08E01015B1F4FCE01855B9F4FDC01B3
:101170006D917D918D919C910E948E1EC35FDD4F7C
:10118000688379838A839B83CD50D240C35FDD4FD0
:1011900028813981CD50D240F80131832083CE019E
:1011A0008D5A9F4F9E01215B3F4FD9012D913C915C
:1011B000FC0131832083CE018D5A9F4FDC018D913C
:1011C0009C910197F1F79E012D5A3F4FF9019183B0
:1011D0008083000010921902109218020E94EB0204
:1011E0000C94311E89E5809304028FE290E0DC01CB
:1011F0008C91882F90E082709927009709F033C175
:101200008091160290911702009709F044C29E0146
:101210002B5A3F4F80E090E0A0EFB1E4F9018083CA
:101220009183A283B3838E01075A1F4FCE018B5A3D
:101230009F4F20E030E04AE755E4DC016D917D915D
:101240008D919C910E940F1FCF5EDD4F6883798343
:101250008A839B83C151D240CF5EDD4F2881398183
:101260004A815B81C151D240D8012D933D934D936A
:101270005C931397CE01875A9F4F20E030E040E8FF
:101280005FE3FC0160817181828193810E94891EEC
:10129000882354F4CE01835A9F4F21E030E0DC01D3
:1012A00011963C932E93A5C0CE01875A9F4F20E004
:1012B0003FEF4FE757E4FC016081718182819381A8
:1012C0000E940A1F882309F00CF475C0CE018B5AC6
:1012D0009F4F20E030E040E251E4DC016D917D91D0
:1012E0008D919C910E940F1FCB5EDD4F68837983A7
:1012F0008A839B83C551D240CB5EDD4F28813981E3
:101300004A815B81C551D240C759DE4F288339835A
:101310004A835B83C956D1408E01035A1F4FC75978
:10132000DE4F688179818A819B81C956D1400E94B4
:101330008E1EC75EDD4F688379838A839B83C95184
:10134000D240C75EDD4FE881F981C951D240D80152
:101350001196FC93EE9326C0CE01815A9F4F20E94F
:1013600031E0DC012D933C93CE01815A9F4FFC016B
:10137000808191810197F1F79E01215A3F4FD90158
:101380008D939C930000CE01835A9F4F9E01235A58
:101390003F4FF9012081318121503109DC01119643
:1013A0003C932E93CE01835A9F4FFC018081918103
:1013B000009791F63AC08E01035A1F4FCE01875A0B
:1013C0009F4FDC016D917D918D919C910E948E1EAD
:1013D000C35EDD4F688379838A839B83CD51D2407E
:1013E000C35EDD4F28813981CD51D240F801318370
:1013F0002083CE018F599F4F9E01235A3F4FD90121
:101400002D913C91FC0131832083CE018F599F4F58
:10141000DC018D919C9111970197F1F79E012F5955
:101420003F4FF901918380830000809110029091D9
:101430001102009759F054F080911002909111021E
:101440000197909311028093100206C089E090E00A
:10145000909311028093100281E090E09093170224
:101460008093160218C1809116029091170200977E
:1014700009F411C19E012D593F4F80E090E0A0EF8B
:10148000B1E4F90180839183A283B3838E0109596A
:101490001F4FCE018D599F4F20E030E04AE755E4C1
:1014A000DC016D917D918D919C910E940F1FCF5D0C
:1014B000DD4F688379838A839B83C152D240CF5D9D
:1014C000DD4F288139814A815B81C152D240D801E8
:1014D0002D933D934D935C931397CE0189599F4F64
:1014E00020E030E040E85FE3FC01608171818281AF
:1014F00093810E94891E882354F4CE0185599F4F01
:1015000021E030E0DC0111963C932E93A5C0CE0182
:1015100089599F4F20E03FEF4FE757E4FC0160817E
:101520007181828193810E940A1F882309F00CF443
:1015300075C0CE018D599F4F20E030E040E251E46C
:10154000DC016D917D918D919C910E940F1FCB5D6F
:10155000DD4F688379838A839B83C552D240CB5DFC
:10156000DD4F288139814A815B81C552D240C35900
:10157000DE4F288339834A835B83CD56D1408E0169
:1015800005591F4FC359DE4F688179818A819B813C
:10159000CD56D1400E948E1EC75DDD4F6883798392
:1015A0008A839B83C952D240C75DDD4FE881F981B0
:1015B000C952D240D8011196FC93EE9326C0CE01B9
:1015C00083599F4F20E931E0DC012D933C93CE01FC
:1015D00083599F4FFC01808191810197F1F79E0112
:1015E00023593F4FD9018D939C930000CE0185591B
:1015F0009F4F9E0125593F4FF90120813181215094
:101600003109DC0111963C932E93CE0185599F4FF1
:10161000FC0180819181009791F639C08E010559B6
:101620001F4FCE0189599F4FDC016D917D918D91A6
:101630009C910E948E1EC35DDD4F688379838A83EF
:101640009B83CD52D240C35DDD4F28813981CD527D
:10165000D240F80131832083CE0181599F4F9E01F2
:1016600025593F4FD9012D913C91FC0131832083B5
:10167000CE0181599F4FDC018D919C910197F1F72B
:101680009E0121593F4FF901918380830000109200
:101690001702109216028FE290E0DC018C91882FE5
:1016A00090E088709927009709F032C180911A0262
:1016B00090911B02009709F043C29E012F583F4FA3
:1016C00080E090E0A0EFB1E4F90180839183A283F0
:1016D000B3838E010B581F4FCE018F589F4F20E0D0
:1016E00030E04AE755E4DC016D917D918D919C914C
:1016F0000E940F1FCF5CDD4F688379838A839B83B1
:10170000C153D240CF5CDD4F288139814A815B8152
:10171000C153D240D8012D933D934D935C931397C1
:10172000CE018B589F4F20E030E040E85FE3FC01A2
:1017300060817181828193810E94891E882354F483
:10174000CE0187589F4F21E030E0DC0111963C9399
:101750002E93A5C0CE018B589F4F20E03FEF4FE75F
:1017600057E4FC0160817181828193810E940A1F8C
:10177000882309F00CF475C0CE018F589F4F20E0EC
:1017800030E040E251E4DC016D917D918D919C91BE
:101790000E940F1FCB5CDD4F688379838A839B8314
:1017A000C553D240CB5CDD4F288139814A815B81B2
:1017B000C553D240CF58DE4F288339834A835B8399
:1017C000C157D1408E0107581F4FCF58DE4F688157
:1017D00079818A819B81C157D1400E948E1EC75C4E
:1017E000DD4F688379838A839B83C953D240C75C6A
:1017F000DD4FE881F981C953D240D8011196FC939D
:10180000EE9326C0CE0185589F4F20E931E0DC01E0
:101810002D933C93CE0185589F4FFC01808191818F
:101820000197F1F79E0125583F4FD9018D939C9365
:101830000000CE0187589F4F9E0127583F4FF90166
:101840002081318121503109DC0111963C932E9386
:10185000CE0187589F4FFC0180819181009791F6BE
:101860003AC08E0107581F4FCE018B589F4FDC01A5
:101870006D917D918D919C910E948E1EC35CDD4F78
:10188000688379838A839B83CD53D240C35CDD4FC9
:1018900028813981CD53D240F80131832083CE0194
:1018A00083589F4F9E0127583F4FD9012D913C915E
:1018B000FC0131832083CE0183589F4FDC018D9141
:1018C0009C9111970197F1F79E0123583F4FF90121
:1018D00091838083000080911002909111028830E2
:1018E000910509F054F48091100290911102019633
:1018F000909311028093100204C010921102109272
:10190000100281E090E090931B0280931A0218C1AC
:1019100080911A0290911B02009709F411C19E0157
:1019200021583F4F80E090E0A0EFB1E4F9018083BF
:101930009183A283B3838E010D571F4FCE0181582F
:101940009F4F20E030E04AE755E4DC016D917D9146
:101950008D919C910E940F1FCF5BDD4F688379832F
:101960008A839B83C154D240CF5BDD4F288139816C
:101970004A815B81C154D240D8012D933D934D9350
:101980005C931397CE018D579F4F20E030E040E8E5
:101990005FE3FC0160817181828193810E94891ED5
:1019A000882354F4CE0189579F4F21E030E0DC01B9
:1019B00011963C932E93A5C0CE018D579F4F20E0EA
:1019C0003FEF4FE757E4FC01608171818281938191
:1019D0000E940A1F882309F00CF475C0CE018158BB
:1019E0009F4F20E030E040E251E4DC016D917D91B9
:1019F0008D919C910E940F1FCB5BDD4F6883798393
:101A00008A839B83C554D240CB5BDD4F28813981CB
:101A10004A815B81C554D240CB58DE4F288339833D
:101A20004A835B83C557D1408E0109571F4FCB585E
:101A3000DE4F688179818A819B81C557D1400E94A0
:101A40008E1EC75BDD4F688379838A839B83C9546D
:101A5000D240C75BDD4FE881F981C954D240D8013B
:101A60001196FC93EE9326C0CE0187579F4F20E935
:101A700031E0DC012D933C93CE0187579F4FFC0151
:101A8000808191810197F1F79E0127573F4FD9013E
:101A90008D939C930000CE0189579F4F9E0129573B
:101AA0003F4FF9012081318121503109DC0111962C
:101AB0003C932E93CE0189579F4FFC0180819181E9
:101AC000009791F639C08E0109571F4FCE018D57EF
:101AD0009F4FDC016D917D918D919C910E948E1E96
:101AE000C35BDD4F688379838A839B83CD54D24067
:101AF000C35BDD4F28813981CD54D240F801318359
:101B00002083CE0185579F4F9E0129573F4FD90112
:101B10002D913C91FC0131832083CE0185579F4F4D
:101B2000DC018D919C910197F1F79E0125573F4F64
:101B3000F90191838083000010921B0210921A0217
:101B40008FE290E0DC018C91882F90E084709927DF
:101B5000009709F035C18091180290911902009701
:101B600009F046C29E0123573F4F80E090E0A0EF6E
:101B7000B1E4F90180839183A283B3838E010F5670
:101B80001F4FCE0183579F4F20E030E04AE755E4D6
:101B9000DC016D917D918D919C910E940F1FCF5A18
:101BA000DD4F688379838A839B83C155D240CF5AA6
:101BB000DD4F288139814A815B81C155D240D801EE
:101BC0002D933D934D935C931397CE018F569F4F6A
:101BD00020E030E040E85FE3FC01608171818281B8
:101BE00093810E94891E882354F4CE018B569F4F07
:101BF00021E030E0DC0111963C932E93A5C0CE018C
:101C00008F569F4F20E03FEF4FE757E4FC01608184
:101C10007181828193810E940A1F882309F00CF44C
:101C200075C0CE0183579F4F20E030E040E251E481
:101C3000DC016D917D918D919C910E940F1FCB5A7B
:101C4000DD4F688379838A839B83C555D240CB5A05
:101C5000DD4F288139814A815B81C555D240C75803
:101C6000DE4F288339834A835B83C957D1408E0175
:101C70000B561F4FC758DE4F688179818A819B813F
:101C8000C957D1400E948E1EC75ADD4F68837983A1
:101C90008A839B83C955D240C75ADD4FE881F981B9
:101CA000C955D240D8011196FC93EE9326C0CE01BF
:101CB00089569F4F20E931E0DC012D933C93CE0102
:101CC00089569F4FFC01808191810197F1F79E0118
:101CD00029563F4FD9018D939C930000CE018B561E
:101CE0009F4F9E012B563F4FF9012081318121509A
:101CF0003109DC0111963C932E93CE018B569F4FF8
:101D0000FC0180819181009791F63AC08E010B56BB
:101D10001F4FCE018F569F4FDC016D917D918D91AC
:101D20009C910E948E1EC35ADD4F688379838A83FB
:101D30009B83CD55D240C35ADD4F28813981CD5583
:101D4000D240F80131832083CE0187569F4F9E01F8
:101D50002B563F4FD9012D913C91FC0131832083BB
:101D6000CE0187569F4FDC018D919C911197019771
:101D7000F1F79E0127563F4FF901918380830000C0
:101D800080911002909111029093010280930002C1
:101D900080911C0290911D02019690931D028093E8
:101DA0001C02809102029091030290931102809391
:101DB000100281E090E0909319028093180218C1FC
:101DC0008091180290911902009709F411C19E01A7
:101DD00025563F4F80E090E0A0EFB1E4F901808309
:101DE0009183A283B3838E0101561F4FCE01855686
:101DF0009F4F20E030E04AE755E4DC016D917D9192
:101E00008D919C910E940F1FCF59DD4F688379837C
:101E10008A839B83C156D240CF59DD4F28813981B7
:101E20004A815B81C156D240D8012D933D934D9399
:101E30005C931397CE0181569F4F20E030E040E83D
:101E40005FE3FC0160817181828193810E94891E20
:101E5000882354F4CE018D559F4F21E030E0DC0102
:101E600011963C932E93A5C0CE0181569F4F20E042
:101E70003FEF4FE757E4FC016081718182819381DC
:101E80000E940A1F882309F00CF475C0CE01855604
:101E90009F4F20E030E040E251E4DC016D917D9104
:101EA0008D919C910E940F1FCB59DD4F68837983E0
:101EB0008A839B83C556D240CB59DD4F2881398117
:101EC0004A815B81C556D240C358DE4F288339838F
:101ED0004A835B83CD57D1408E010D551F4FC358A8
:101EE000DE4F688179818A819B81CD57D1400E94E4
:101EF0008E1EC759DD4F688379838A839B83C956B9
:101F0000D240C759DD4FE881F981C956D240D80186
:101F10001196FC93EE9326C0CE018B559F4F20E97E
:101F200031E0DC012D933C93CE018B559F4FFC019A
:101F3000808191810197F1F79E012B553F4FD90187
:101F40008D939C930000CE018D559F4F9E012D5582
:101F50003F4FF9012081318121503109DC01119677
:101F60003C932E93CE018D559F4FFC018081918132
:101F7000009791F639C08E010D551F4FCE01815645
:101F80009F4FDC016D917D918D919C910E948E1EE1
:101F9000C359DD4F688379838A839B83CD56D240B2
:101FA000C359DD4F28813981CD56D240F8013183A4
:101FB0002083CE0189559F4F9E012D553F4FD9015A
:101FC0002D913C91FC0131832083CE0189559F4F97
:101FD000DC018D919C910197F1F79E0129553F4FAE
:101FE000F901918380830000109219021092180267
:101FF0000E94EB020C94311E88E58093040285E276
:1020000090E02FE7DC012C9384E60E94A3018FE28D
:1020100090E0FC018081882F90E0827099270097E2
:1020200009F025C18091160290911702009709F0DE
:1020300036C29E0127553F4F80E090E0A0EFB1E40B
:10204000F90180839183A283B3838E0103551F4FCF
:10205000CE0187559F4F20E030E04AE755E4DC0190
:102060006D917D918D919C910E940F1FCF58DD4FF6
:10207000688379838A839B83C157D240CF58DD4FD1
:10208000288139814A815B81C157D240D8012D9383
:102090003D934D935C931397CE0183559F4F20E062
:1020A00030E040E85FE3FC016081718182819381CF
:1020B0000E94891E882354F4CE018F549F4F21E043
:1020C00030E0DC0111963C932E93A5C0CE018355E0
:1020D0009F4F20E03FEF4FE757E4FC0160817181A3
:1020E000828193810E940A1F882309F00CF475C035
:1020F000CE0187559F4F20E030E040E251E4DC0103
:102100006D917D918D919C910E940F1FCB58DD4F59
:10211000688379838A839B83C557D240CB58DD4F30
:10212000288139814A815B81C557D240CF57DE4F24
:10213000288339834A835B83C158D1408E010F5471
:102140001F4FCF57DE4F688179818A819B81C158AB
:10215000D1400E948E1EC758DD4F688379838A83E1
:102160009B83C957D240C758DD4FE881F981C957D1
:10217000D240D8011196FC93EE9326C0CE018D5427
:102180009F4F20E931E0DC012D933C93CE018D542B
:102190009F4FFC01808191810197F1F79E012D54A1
:1021A0003F4FD9018D939C930000CE018F549F4FD8
:1021B0009E012F543F4FF901208131812150310977
:1021C000DC0111963C932E93CE018F549F4FFC015E
:1021D00080819181009791F63AC08E010F541F4F74
:1021E000CE0183559F4FDC016D917D918D919C9126
:1021F0000E948E1EC358DD4F688379838A839B8338
:10220000CD57D240C358DD4F28813981CD57D240B8
:10221000F80131832083CE018B549F4F9E012F54B0
:102220003F4FD9012D913C91FC0131832083CE0198
:102230008B549F4FDC018D919C9111970197F1F781
:102240009E012B543F4FF9019183808300008091C0
:10225000020290910302019790930302809302027D
:1022600081E090E0909317028093160218C180914C
:10227000160290911702009709F411C19E0129548A
:102280003F4F80E090E0A0EFB1E4F90180839183BB
:10229000A283B3838E0105541F4FCE0189549F4FF3
:1022A00020E030E04AE755E4DC016D917D918D91AD
:1022B0009C910E940F1FCF57DD4F688379838A83DB
:1022C0009B83C158D240CF57DD4F288139814A8145
:1022D0005B81C158D240D8012D933D934D935C93BF
:1022E0001397CE0185549F4F20E030E040E85FE334
:1022F000FC0160817181828193810E94891E882303
:1023000054F4CE0181549F4F21E030E0DC0111965E
:102310003C932E93A5C0CE0185549F4F20E03FEF04
:102320004FE757E4FC0160817181828193810E94B3
:102330000A1F882309F00CF475C0CE0189549F4F01
:1023400020E030E040E251E4DC016D917D918D911F
:102350009C910E940F1FCB57DD4F688379838A833E
:102360009B83C558D240CB57DD4F288139814A81A4
:102370005B81C558D240CB57DE4F288339834A83CF
:102380005B83C558D1408E0101541F4FCB57DE4FA0
:10239000688179818A819B81C558D1400E948E1EB7
:1023A000C757DD4F688379838A839B83C958D2409E
:1023B000C757DD4FE881F981C958D240D80111963D
:1023C000FC93EE9326C0CE018F539F4F20E931E05E
:1023D000DC012D933C93CE018F539F4FFC018081F4
:1023E00091810197F1F79E012F533F4FD9018D93B2
:1023F0009C930000CE0181549F4F9E0121543F4F7A
:10240000F9012081318121503109DC0111963C9381
:102410002E93CE0181549F4FFC01808191810097C2
:1024200091F639C08E0101541F4FCE0185549F4F44
:10243000DC016D917D918D919C910E948E1EC35700
:10244000DD4F688379838A839B83CD58D240C357FD
:10245000DD4F28813981CD58D240F8013183208366
:10246000CE018D539F4F9E0121543F4FD9012D9195
:102470003C91FC0131832083CE018D539F4FDC01C1
:102480008D919C910197F1F79E012D533F4FF901DA
:1024900091838083000010921702109216028FE23F
:1024A00090E0DC018C91882F90E08870992700974C
:1024B00009F025C180911A0290911B02009709F042
:1024C00036C29E012B533F4F80E090E0A0EFB1E475
:1024D000F90180839183A283B3838E0107531F4F39
:1024E000CE018B539F4F20E030E04AE755E4DC01FA
:1024F0006D917D918D919C910E940F1FCF56DD4F64
:10250000688379838A839B83C159D240CF56DD4F3C
:10251000288139814A815B81C159D240D8012D93EC
:102520003D934D935C931397CE0187539F4F20E0CB
:1025300030E040E85FE3FC0160817181828193813A
:102540000E94891E882354F4CE0183539F4F21E0BB
:1025500030E0DC0111963C932E93A5C0CE01875349
:102560009F4F20E03FEF4FE757E4FC01608171810E
:10257000828193810E940A1F882309F00CF475C0A0
:10258000CE018B539F4F20E030E040E251E4DC016C
:102590006D917D918D919C910E940F1FCB56DD4FC7
:1025A000688379838A839B83C559D240CB56DD4F9C
:1025B000288139814A815B81C559D240C757DE4F96
:1025C000288339834A835B83C958D1408E010353E2
:1025D0001F4FC757DE4F688179818A819B81C95817
:1025E000D1400E948E1EC756DD4F688379838A834F
:1025F0009B83C959D240C756DD4FE881F981C9593B
:10260000D240D8011196FC93EE9326C0CE0181539F
:102610009F4F20E931E0DC012D933C93CE018153A3
:102620009F4FFC01808191810197F1F79E01215319
:102630003F4FD9018D939C930000CE0183539F4F50
:102640009E0123533F4FF9012081318121503109EF
:10265000DC0111963C932E93CE0183539F4FFC01D6
:1026600080819181009791F63AC08E0103531F4FEC
:10267000CE0187539F4FDC016D917D918D919C918F
:102680000E948E1EC356DD4F688379838A839B83A5
:10269000CD59D240C356DD4F28813981CD59D24022
:1026A000F80131832083CE018F529F4F9E01235327
:1026B0003F4FD9012D913C91FC0131832083CE0104
:1026C0008F529F4FDC018D919C9111970197F1F7EB
:1026D0009E012F523F4FF90191838083000080912A
:1026E00002029091030201979093030280930202E9
:1026F00081E090E090931B0280931A0218C18091B0
:102700001A0290911B02009709F411C19E012D52EB
:102710003F4F80E090E0A0EFB1E4F9018083918326
:10272000A283B3838E0109521F4FCE018D529F4F5A
:1027300020E030E04AE755E4DC016D917D918D9118
:102740009C910E940F1FCF55DD4F688379838A8348
:102750009B83C15AD240CF55DD4F288139814A81B0
:102760005B81C15AD240D8012D933D934D935C9328
:102770001397CE0189529F4F20E030E040E85FE39D
:10278000FC0160817181828193810E94891E88236E
:1027900054F4CE0185529F4F21E030E0DC011196C8
:1027A0003C932E93A5C0CE0189529F4F20E03FEF6E
:1027B0004FE757E4FC0160817181828193810E941F
:1027C0000A1F882309F00CF475C0CE018D529F4F6B
:1027D00020E030E040E251E4DC016D917D918D918B
:1027E0009C910E940F1FCB55DD4F688379838A83AC
:1027F0009B83C55AD240CB55DD4F288139814A8110
:102800005B81C55AD240C357DE4F288339834A8340
:102810005B83CD58D1408E0105521F4FC357DE4F09
:10282000688179818A819B81CD58D1400E948E1E1A
:10283000C755DD4F688379838A839B83C95AD24009
:10284000C755DD4FE881F981C95AD240D8011196A8
:10285000FC93EE9326C0CE0183529F4F20E931E0D6
:10286000DC012D933C93CE0183529F4FFC0180816C
:1028700091810197F1F79E0123523F4FD9018D932A
:102880009C930000CE0185529F4F9E0125523F4FE1
:10289000F9012081318121503109DC0111963C93ED
:1028A0002E93CE0185529F4FFC018081918100972C
:1028B00091F639C08E0105521F4FCE0189529F4FAC
:1028C000DC016D917D918D919C910E948E1EC3556E
:1028D000DD4F688379838A839B83CD5AD240C35569
:1028E000DD4F28813981CD5AD240F80131832083D0
:1028F000CE0181529F4F9E0125523F4FD9012D910C
:102900003C91FC0131832083CE0181529F4FDC0139
:102910008D919C910197F1F79E0121523F4FF90152
:1029200091838083000010921B0210921A028FE2A2
:1029300090E0DC018C91882F90E0847099270097BB
:1029400009F033C18091180290911902009709F0A3
:1029500045C29E012F513F4F80E090E0A0EFB1E4CF
:10296000F90180839183A283B3838E010B511F4FA2
:10297000CE018F519F4F20E030E04AE755E4DC0163
:102980006D917D918D919C910E940F1FCF54DD4FD1
:10299000688379838A839B83C15BD240CF54DD4FA8
:1029A000288139814A815B81C15BD240D8012D9356
:1029B0003D934D935C931397CE018B519F4F20E035
:1029C00030E040E85FE3FC016081718182819381A6
:1029D0000E94891E882354F4CE0187519F4F21E025
:1029E00030E0DC0111963C932E93A5C0CE018B51B3
:1029F0009F4F20E03FEF4FE757E4FC01608171817A
:102A0000828193810E940A1F882309F00CF475C00B
:102A1000CE018F519F4F20E030E040E251E4DC01D5
:102A20006D917D918D919C910E940F1FCB54DD4F34
:102A3000688379838A839B83C55BD240CB54DD4F07
:102A4000288139814A815B81C55BD240CF56DE4FF8
:102A5000288339834A835B83C159D1408E01075152
:102A60001F4FCF56DE4F688179818A819B81C15982
:102A7000D1400E948E1EC754DD4F688379838A83BC
:102A80009B83C95BD240C754DD4FE881F981C95BA4
:102A9000D240D8011196FC93EE9326C0CE01855109
:102AA0009F4F20E931E0DC012D933C93CE0185510D
:102AB0009F4FFC01808191810197F1F79E01255183
:102AC0003F4FD9018D939C930000CE0187519F4FBA
:102AD0009E0127513F4FF901208131812150310959
:102AE000DC0111963C932E93CE0187519F4FFC0140
:102AF00080819181009791F639C08E0107511F4F57
:102B0000CE018B519F4FDC016D917D918D919C91F8
:102B10000E948E1EC354DD4F688379838A839B8312
:102B2000CD5BD240C354DD4F28813981CD5BD2408B
:102B3000F80131832083CE0183519F4F9E0127519D
:102B40003F4FD9012D913C91FC0131832083CE016F
:102B500083519F4FDC018D919C910197F1F79E016C
:102B600023513F4FF90191838083000010921D0291
:102B700010921C02109203021092020210920102A3
:102B800010920002109211021092100281E090E067
:102B9000909319028093180285E290E020E8DC010E
:102BA0002C9380E00E94A30119C18091180290919A
:102BB0001902009709F412C19E0121513F4F80E094
:102BC00090E0A0EFB1E4F90180839183A283B38305
:102BD0008E010D501F4FCE0181519F4F20E030E0FC
:102BE0004AE755E4DC016D917D918D919C910E94A5
:102BF0000F1FCF53DD4F688379838A839B83C15C2A
:102C0000D240CF53DD4F288139814A815B81C15C3D
:102C1000D240D8012D933D934D935C931397CE01F1
:102C20008D509F4F20E030E040E85FE3FC01608181
:102C30007181828193810E94891E882354F4CE0180
:102C400089509F4F21E030E0DC0111963C932E9398
:102C5000A5C0CE018D509F4F20E03FEF4FE757E4D6
:102C6000FC0160817181828193810E940A1F882307
:102C700009F00CF475C0CE0181519F4F20E030E087
:102C800040E251E4DC016D917D918D919C910E9417
:102C90000F1FCB53DD4F688379838A839B83C55C89
:102CA000D240CB53DD4F288139814A815B81C55C9D
:102CB000D240CB56DE4F288339834A835B83C55984
:102CC000D1408E0109501F4FCB56DE4F688179816C
:102CD0008A819B81C559D1400E948E1EC753DD4F0A
:102CE000688379838A839B83C95CD240C753DD4F55
:102CF000E881F981C95CD240D8011196FC93EE932A
:102D000026C0CE0187509F4F20E931E0DC012D9392
:102D10003C93CE0187509F4FFC01808191810197A8
:102D2000F1F79E0127503F4FD9018D939C930000EE
:102D3000CE0189509F4F9E0129503F4FF9012081BC
:102D4000318121503109DC0111963C932E93CE0143
:102D500089509F4FFC0180819181009791F63AC084
:102D60008E0109501F4FCE018D509F4FDC016D9198
:102D70007D918D919C910E948E1EC353DD4F68837F
:102D800079838A839B83CD5CD240C353DD4F2881F6
:102D90003981CD5CD240F80131832083CE0185504A
:102DA0009F4F9E0129503F4FD9012D913C91FC012D
:102DB00031832083CE0185509F4FDC018D919C9102
:102DC00011970197F1F79E0125503F4FF90191832B
:102DD0008083000010921902109218028091020262
:102DE000909103020097C9F485E290E020E8DC01AD
:102DF0002C9380E00E94A30180911C0290911D02FF
:102E0000019690931D0280931C0280910002909184
:102E1000010290931102809310028091020290911E
:102E2000030290931102809310020E94EB0219C7D3
:102E300089E58093040285E290E02FEBFC0120837A
:102E400084E60E94A3018FE290E0DC018C91882F40
:102E500090E082709927009709F025C180911602B1
:102E600090911702009709F036C29E0123503F4F00
:102E700080E090E0A0EFB1E4F90180839183A28328
:102E8000B3838E010F5F1E4FCE0183509F4F20E012
:102E900030E04AE755E4DC016D917D918D919C9184
:102EA0000E940F1FCF52DD4F688379838A839B83F3
:102EB000C15DD240CF52DD4F288139814A815B818B
:102EC000C15DD240D8012D933D934D935C931397F0
:102ED000CE018F5F9E4F20E030E040E85FE3FC01D1
:102EE00060817181828193810E94891E882354F4BC
:102EF000CE018B5F9E4F21E030E0DC0111963C93C8
:102F00002E93A5C0CE018F5F9E4F20E03FEF4FE78D
:102F100057E4FC0160817181828193810E940A1FC4
:102F2000882309F00CF475C0CE0183509F4F20E038
:102F300030E040E251E4DC016D917D918D919C91F6
:102F40000E940F1FCB52DD4F688379838A839B8356
:102F5000C55DD240CB52DD4F288139814A815B81EA
:102F6000C55DD240C756DE4F288339834A835B83D1
:102F7000C959D1408E010B5F1E4FC756DE4F688185
:102F800079818A819B81C959D1400E948E1EC75286
:102F9000DD4F688379838A839B83C95DD240C752A2
:102FA000DD4FE881F981C95DD240D8011196FC93CB
:102FB000EE9326C0CE01895F9E4F20E931E0DC010F
:102FC0002D933C93CE01895F9E4FFC0180819181BE
:102FD0000197F1F79E01295F3E4FD9018D939C9394
:102FE0000000CE018B5F9E4F9E012B5F3E4FF9018B
:102FF0002081318121503109DC0111963C932E93BF
:10300000CE018B5F9E4FFC0180819181009791F6EC
:103010003AC08E010B5F1E4FCE018F5F9E4FDC01C9
:103020006D917D918D919C910E948E1EC352DD4FBA
:10303000688379838A839B83CD5DD240C352DD4F01
:1030400028813981CD5DD240F80131832083CE01C2
:10305000875F9E4F9E012B5F3E4FD9012D913C9182
:10306000FC0131832083CE01875F9E4FDC018D916F
:103070009C9111970197F1F79E01275F3E4FF9014F
:10308000918380830000809100029091010201975A
:10309000909301028093000281E090E090931702E8
:1030A0008093160218C18091160290911702009722
:1030B00009F411C19E01255F3E4F80E090E0A0EF32
:1030C000B1E4F90180839183A283B3838E01015F10
:1030D0001E4FCE01855F9E4F20E030E04AE755E469
:1030E000DC016D917D918D919C910E940F1FCF51BC
:1030F000DD4F688379838A839B83C15ED240CF5141
:10310000DD4F288139814A815B81C15ED240D8017F
:103110002D933D934D935C931397CE01815F9E4F0A
:1031200020E030E040E85FE3FC0160817181828152
:1031300093810E94891E882354F4CE018D5E9E4F98
:1031400021E030E0DC0111963C932E93A5C0CE0126
:10315000815F9E4F20E03FEF4FE757E4FC01608125
:103160007181828193810E940A1F882309F00CF4E7
:1031700075C0CE01855F9E4F20E030E040E251E413
:10318000DC016D917D918D919C910E940F1FCB511F
:10319000DD4F688379838A839B83C55ED240CB51A0
:1031A000DD4F288139814A815B81C55ED240C3569B
:1031B000DE4F288339834A835B83CD59D1408E010A
:1031C0000D5E1E4FC356DE4F688179818A819B81D7
:1031D000CD59D1400E948E1EC751DD4F688379833F
:1031E0008A839B83C95ED240C751DD4FE881F98154
:1031F000C95ED240D8011196FC93EE9326C0CE0151
:103200008B5E9E4F20E931E0DC012D933C93CE0193
:103210008B5E9E4FFC01808191810197F1F79E01A9
:103220002B5E3E4FD9018D939C930000CE018D5EA5
:103230009E4F9E012D5E3E4FF9012081318121502C
:103240003109DC0111963C932E93CE018D5E9E4F89
:10325000FC0180819181009791F639C08E010D5E4D
:103260001E4FCE01815F9E4FDC016D917D918D914E
:103270009C910E948E1EC351DD4F688379838A839F
:103280009B83CD5ED240C351DD4F28813981CD5E15
:10329000D240F80131832083CE01895E9E4F9E018A
:1032A0002D5E3E4FD9012D913C91FC01318320834D
:1032B000CE01895E9E4FDC018D919C910197F1F7C3
:1032C0009E01295E3E4FF901918380830000109298
:1032D0001702109216028FE290E0DC018C91882F89
:1032E00090E088709927009709F025C180911A0213
:1032F00090911B02009709F036C29E01275E3E4F57
:1033000080E090E0A0EFB1E4F90180839183A28393
:10331000B3838E01035E1E4FCE01875E9E4F20E079
:1033200030E04AE755E4DC016D917D918D919C91EF
:103330000E940F1FCF50DD4F688379838A839B8360
:10334000C15FD240CF50DD4F288139814A815B81F6
:10335000C15FD240D8012D933D934D935C93139759
:10336000CE01835E9E4F20E030E040E85FE3FC0149
:1033700060817181828193810E94891E882354F427
:10338000CE018F5D9E4F21E030E0DC0111963C9331
:103390002E93A5C0CE01835E9E4F20E03FEF4FE706
:1033A00057E4FC0160817181828193810E940A1F30
:1033B000882309F00CF475C0CE01875E9E4F20E093
:1033C00030E040E251E4DC016D917D918D919C9162
:1033D0000E940F1FCB50DD4F688379838A839B83C4
:1033E000C55FD240CB50DD4F288139814A815B8156
:1033F000C55FD240CF55DE4F288339834A835B8334
:10340000C15AD1408E010F5D1E4FCF55DE4F6881EE
:1034100079818A819B81C15AD1400E948E1EC750FA
:10342000DD4F688379838A839B83C95FD240C7500D
:10343000DD4FE881F981C95FD240D8011196FC9334
:10344000EE9326C0CE018D5D9E4F20E931E0DC0178
:103450002D933C93CE018D5D9E4FFC018081918127
:103460000197F1F79E012D5D3E4FD9018D939C93FD
:103470000000CE018F5D9E4F9E012F5D3E4FF901F2
:103480002081318121503109DC0111963C932E932A
:10349000CE018F5D9E4FFC0180819181009791F656
:1034A0003AC08E010F5D1E4FCE01835E9E4FDC0140
:1034B0006D917D918D919C910E948E1EC350DD4F28
:1034C000688379838A839B83CD5FD240C350DD4F6D
:1034D00028813981CD5FD240F80131832083CE012C
:1034E0008B5D9E4F9E012F5D3E4FD9012D913C91EA
:1034F000FC0131832083CE018B5D9E4FDC018D91D9
:103500009C9111970197F1F79E012B5D3E4FF901B8
:1035100091838083000080910002909101020197C5
:10352000909301028093000281E090E090931B024F
:1035300080931A0218C180911A0290911B02009781
:1035400009F411C19E01295D3E4F80E090E0A0EF9B
:10355000B1E4F90180839183A283B3838E01055D79
:103560001E4FCE01895D9E4F20E030E04AE755E4D2
:10357000DC016D917D918D919C910E940F1FCF5F19
:10358000DC4F688379838A839B83C150D340CF5FAC
:10359000DC4F288139814A815B81C150D340D801F9
:1035A0002D933D934D935C931397CE01855D9E4F74
:1035B00020E030E040E85FE3FC01608171818281BE
:1035C00093810E94891E882354F4CE01815D9E4F11
:1035D00021E030E0DC0111963C932E93A5C0CE0192
:1035E000855D9E4F20E03FEF4FE757E4FC0160818F
:1035F0007181828193810E940A1F882309F00CF453
:1036000075C0CE01895D9E4F20E030E040E251E47C
:10361000DC016D917D918D919C910E940F1FCB5F7C
:10362000DC4F688379838A839B83C550D340CB5F0B
:10363000DC4F288139814A815B81C550D340CB550D
:10364000DE4F288339834A835B83C55AD1408E017C
:10365000015D1E4FCB55DE4F688179818A819B8148
:10366000C55AD1400E948E1EC75FDC4F68837983A4
:103670008A839B83C950D340C75FDC4FE881F981BF
:10368000C950D340D8011196FC93EE9326C0CE01C9
:103690008F5C9E4F20E931E0DC012D933C93CE01FD
:1036A0008F5C9E4FFC01808191810197F1F79E0113
:1036B0002F5C3E4FD9018D939C930000CE01815D1C
:1036C0009E4F9E01215D3E4FF901208131812150A5
:1036D0003109DC0111963C932E93CE01815D9E4F02
:1036E000FC0180819181009791F639C08E01015DC6
:1036F0001E4FCE01855D9E4FDC016D917D918D91B8
:103700009C910E948E1EC35FDC4F688379838A83FD
:103710009B83CD50D340C35FDC4F28813981CD508E
:10372000D340F80131832083CE018D5C9E4F9E01F2
:10373000215D3E4FD9012D913C91FC0131832083C5
:10374000CE018D5C9E4FDC018D919C910197F1F72C
:103750009E012D5C3E4FF901918380830000109201
:103760001B0210921A028FE290E0DC018C91882FEC
:1037700090E084709927009709F033C18091180276
:1037800090911902009709F045C29E012B5C3E4FB3
:1037900080E090E0A0EFB1E4F90180839183A283FF
:1037A000B3838E01075C1E4FCE018B5C9E4F20E0E1
:1037B00030E04AE755E4DC016D917D918D919C915B
:1037C0000E940F1FCF5EDC4F688379838A839B83BF
:1037D000C151D340CF5EDC4F288139814A815B8162
:1037E000C151D340D8012D933D934D935C931397D2
:1037F000CE01875C9E4F20E030E040E85FE3FC01B3
:1038000060817181828193810E94891E882354F492
:10381000CE01835C9E4F21E030E0DC0111963C93A9
:103820002E93A5C0CE01875C9E4F20E03FEF4FE76F
:1038300057E4FC0160817181828193810E940A1F9B
:10384000882309F00CF475C0CE018B5C9E4F20E0FC
:1038500030E040E251E4DC016D917D918D919C91CD
:103860000E940F1FCB5EDC4F688379838A839B8322
:10387000C551D340CB5EDC4F288139814A815B81C1
:10388000C551D340C755DE4F288339834A835B83B4
:10389000C95AD1408E01035C1E4FC755DE4F688167
:1038A00079818A819B81C95AD1400E948E1EC75E50
:1038B000DC4F688379838A839B83C951D340C75E79
:1038C000DC4FE881F981C951D340D8011196FC93AE
:1038D000EE9326C0CE01815C9E4F20E931E0DC01F1
:1038E0002D933C93CE01815C9E4FFC0180819181A0
:1038F0000197F1F79E01215C3E4FD9018D939C9376
:103900000000CE01835C9E4F9E01235C3E4FF90177
:103910002081318121503109DC0111963C932E9395
:10392000CE01835C9E4FFC0180819181009791F6CE
:1039300039C08E01035C1E4FCE01875C9E4FDC01B7
:103940006D917D918D919C910E948E1EC35EDC4F86
:10395000688379838A839B83CD51D340C35EDC4FD8
:1039600028813981CD51D340F80131832083CE01A4
:103970008F5B9E4F9E01235C3E4FD9012D913C9160
:10398000FC0131832083CE018F5B9E4FDC018D9142
:103990009C910197F1F79E012F5B3E4FF9019183B6
:1039A0008083000010921D0210921C0210920102EE
:1039B0001092000210920302109202021092110261
:1039C0001092100285E290E020E4DC012C9380E06C
:1039D0000E94A30181E090E0909319028093180265
:1039E00019C18091180290911902009709F412C12F
:1039F0009E012D5B3E4F80E090E0A0EFB1E4F90125
:103A000080839183A283B3838E01095B1E4FCE0115
:103A10008D5B9E4F20E030E04AE755E4DC016D917C
:103A20007D918D919C910E940F1FCF5DDC4F68832B
:103A300079838A839B83C152D340CF5DDC4F288139
:103A400039814A815B81C152D340D8012D933D9386
:103A50004D935C931397CE01895B9E4F20E030E03D
:103A600040E85FE3FC0160817181828193810E9463
:103A7000891E882354F4CE01855B9E4F21E030E0FF
:103A8000DC0111963C932E93A5C0CE01895B9E4F1D
:103A900020E03FEF4FE757E4FC01608171818281B4
:103AA00093810E940A1F882309F00CF475C0CE018F
:103AB0008D5B9E4F20E030E040E251E4DC016D91EF
:103AC0007D918D919C910E940F1FCB5DDC4F68838F
:103AD00079838A839B83C552D340CB5DDC4F288199
:103AE00039814A815B81C552D340C355DE4F28835B
:103AF00039834A835B83CD5AD1408E01055B1E4FCB
:103B0000C355DE4F688179818A819B81CD5AD1402E
:103B10000E948E1EC75DDC4F688379838A839B83F6
:103B2000C952D340C75DDC4FE881F981C952D34007
:103B3000D8011196FC93EE9326C0CE01835B9E4F75
:103B400020E931E0DC012D933C93CE01835B9E4F55
:103B5000FC01808191810197F1F79E01235B3E4F2B
:103B6000D9018D939C930000CE01855B9E4F9E01F1
:103B7000255B3E4FF9012081318121503109DC0163
:103B800011963C932E93CE01855B9E4FFC01808164
:103B90009181009791F63AC08E01055B1E4FCE01D0
:103BA000895B9E4FDC016D917D918D919C910E946E
:103BB0008E1EC35DDC4F688379838A839B83CD52DD
:103BC000D340C35DDC4F28813981CD52D340F80109
:103BD00031832083CE01815B9E4F9E01255B3E4F4A
:103BE000D9012D913C91FC0131832083CE01815B71
:103BF0009E4FDC018D919C9111970197F1F79E01E9
:103C0000215B3E4FF90191838083000010921902DD
:103C1000109218028091000290910102009789F49D
:103C200080911C0290911D02019690931D02809339
:103C30001C0285E290E020E4DC012C9380E00E94ED
:103C4000A301809100029091010290931102809350
:103C500010020E94EB0205C010921D0210921C027D
:103C600000000C942C031F920F920FB60F92112498
:103C70002F933F935F936F937F938F939F93AF9314
:103C8000BF93CF93DF93CDB7DEB7809110029091B1
:103C900011022AE030E0B9010E94611E80931202F5
:103CA0000000DF91CF91BF91AF919F918F917F9154
:103CB0006F915F913F912F910F900FBE0F901F90CA
:103CC000189597FB072E16F4009407D077FD09D0BE
:103CD0000E94751E07FC05D03EF4909581959F4F7C
:103CE0000895709561957F4F0895AA1BBB1B51E104
:103CF00007C0AA1FBB1FA617B70710F0A61BB70B5C
:103D0000881F991F5A95A9F780959095BC01CD0100
:103D100008950E94BD1E08F481E008950E94E91EE6
:103D200088F09F5798F0B92F9927B751B0F0E1F07C
:103D3000660F771F881F991F1AF0BA95C9F714C02C
:103D4000B13091F00E94031FB1E008950C94031F5D
:103D5000672F782F8827B85F39F0B93FCCF3869565
:103D600077956795B395D9F73EF4909580957095C2
:103D700061957F4F8F4F9F4F0895990F0008550F02
:103D8000AA0BE0E8FEEF16161706E807F907C0F0E1
:103D900012161306E407F50798F0621B730B840BE9
:103DA000950B39F40A2661F0232B242B252B21F4C3
:103DB00008950A2609F4A140A6958FEF811D811D63
:103DC000089557FD9058440F551F59F05F3F71F00B
:103DD0004795880F97FB991F61F09F3F79F0879572
:103DE0000895121613061406551FF2CF4695F1DFFB
:103DF00008C0161617061806991FF1CF869571058B
:103E0000610508940895E894BB2766277727CB01BE
:103E100097F908950E94BD1E08F48FEF08950E943F
:103E2000221F0C94931F0E94851F38F00E948C1F44
:103E300020F0952311F00C947C1F0C94821F112408
:103E40000C94041F0E94E11E70F3959FC1F3950F1F
:103E500050E0551F629FF001729FBB27F00DB11D0E
:103E6000639FAA27F00DB11DAA1F649F6627B00D9E
:103E7000A11D661F829F2227B00DA11D621F739F87
:103E8000B00DA11D621F839FA00D611D221F749F95
:103E90003327A00D611D231F849F600D211D822FDC
:103EA000762F6A2F11249F5750409AF0F1F0882303
:103EB0004AF0EE0FFF1FBB1F661F771F881F915030
:103EC0005040A9F79E3F510580F00C947C1F0C9444
:103ED000041F5F3FE4F3983ED4F38695779567958A
:103EE000B795F795E7959F5FC1F7FE2B880F911D5A
:103EF0009695879597F9089597F99F6780E870E000
:103F000060E008959FEF80EC089500240A9416164F
:103F1000170618060906089500240A9412161306B7
:103F2000140605060895092E0394000C11F4882345
:103F300052F0BB0F40F4BF2B11F460FF04C06F5F61
:0C3F40007F4F8F4F9F4F0895F894FFCFE4
:103F4C00FF00FF0065039F250D9949411F011900D2
:00000001FF
